{
  "_format": "hh-sol-artifact-1",
  "contractName": "CamoSuperParcel",
  "sourceName": "contracts/CamoSuperParcel.sol",
  "abi": [
    {
      "inputs": [
        {
          "internalType": "address",
          "name": "token_addr",
          "type": "address"
        },
        {
          "internalType": "int96",
          "name": "shipperFee_",
          "type": "int96"
        }
      ],
      "stateMutability": "nonpayable",
      "type": "constructor"
    },
    {
      "inputs": [],
      "name": "Unauthorized",
      "type": "error"
    },
    {
      "anonymous": false,
      "inputs": [
        {
          "indexed": false,
          "internalType": "address",
          "name": "",
          "type": "address"
        },
        {
          "indexed": false,
          "internalType": "address",
          "name": "",
          "type": "address"
        },
        {
          "indexed": false,
          "internalType": "uint256",
          "name": "",
          "type": "uint256"
        }
      ],
      "name": "ParcelDelivered",
      "type": "event"
    },
    {
      "anonymous": false,
      "inputs": [
        {
          "indexed": false,
          "internalType": "address",
          "name": "",
          "type": "address"
        },
        {
          "indexed": false,
          "internalType": "address",
          "name": "",
          "type": "address"
        },
        {
          "indexed": false,
          "internalType": "uint256",
          "name": "",
          "type": "uint256"
        }
      ],
      "name": "ParcelLocationUpdated",
      "type": "event"
    },
    {
      "anonymous": false,
      "inputs": [
        {
          "indexed": false,
          "internalType": "address",
          "name": "",
          "type": "address"
        },
        {
          "indexed": false,
          "internalType": "address",
          "name": "",
          "type": "address"
        },
        {
          "indexed": false,
          "internalType": "uint256",
          "name": "",
          "type": "uint256"
        }
      ],
      "name": "ParcelShippedEvent",
      "type": "event"
    },
    {
      "inputs": [
        {
          "internalType": "address",
          "name": "partner",
          "type": "address"
        },
        {
          "internalType": "int96",
          "name": "salary",
          "type": "int96"
        }
      ],
      "name": "addPartner",
      "outputs": [],
      "stateMutability": "nonpayable",
      "type": "function"
    },
    {
      "inputs": [
        {
          "internalType": "uint256",
          "name": "id",
          "type": "uint256"
        }
      ],
      "name": "banShipper",
      "outputs": [],
      "stateMutability": "nonpayable",
      "type": "function"
    },
    {
      "inputs": [],
      "name": "getMyId",
      "outputs": [
        {
          "internalType": "uint256",
          "name": "",
          "type": "uint256"
        }
      ],
      "stateMutability": "view",
      "type": "function"
    },
    {
      "inputs": [
        {
          "internalType": "uint256",
          "name": "id",
          "type": "uint256"
        }
      ],
      "name": "getMyPartnerById",
      "outputs": [
        {
          "components": [
            {
              "internalType": "address",
              "name": "walletAddress",
              "type": "address"
            },
            {
              "internalType": "address",
              "name": "associatedShipper",
              "type": "address"
            },
            {
              "internalType": "int96",
              "name": "salary",
              "type": "int96"
            },
            {
              "internalType": "bool",
              "name": "active",
              "type": "bool"
            }
          ],
          "internalType": "struct CamoSuperParcel.Partner",
          "name": "",
          "type": "tuple"
        }
      ],
      "stateMutability": "view",
      "type": "function"
    },
    {
      "inputs": [],
      "name": "getMyType",
      "outputs": [
        {
          "internalType": "uint16",
          "name": "",
          "type": "uint16"
        }
      ],
      "stateMutability": "view",
      "type": "function"
    },
    {
      "inputs": [
        {
          "internalType": "uint256",
          "name": "id",
          "type": "uint256"
        }
      ],
      "name": "getShipperById",
      "outputs": [
        {
          "components": [
            {
              "internalType": "address",
              "name": "walletAddress",
              "type": "address"
            },
            {
              "internalType": "uint256[]",
              "name": "myPartners",
              "type": "uint256[]"
            },
            {
              "internalType": "uint256[]",
              "name": "shippedParcels",
              "type": "uint256[]"
            },
            {
              "internalType": "uint256",
              "name": "insuranceDeposit",
              "type": "uint256"
            },
            {
              "internalType": "uint8",
              "name": "status",
              "type": "uint8"
            },
            {
              "internalType": "uint256",
              "name": "rating",
              "type": "uint256"
            },
            {
              "internalType": "uint256",
              "name": "totalRated",
              "type": "uint256"
            }
          ],
          "internalType": "struct CamoSuperParcel.Shipper",
          "name": "",
          "type": "tuple"
        }
      ],
      "stateMutability": "view",
      "type": "function"
    },
    {
      "inputs": [
        {
          "internalType": "uint256",
          "name": "pId",
          "type": "uint256"
        },
        {
          "internalType": "uint256",
          "name": "otp",
          "type": "uint256"
        }
      ],
      "name": "markParcelDelivered",
      "outputs": [],
      "stateMutability": "nonpayable",
      "type": "function"
    },
    {
      "inputs": [],
      "name": "owner",
      "outputs": [
        {
          "internalType": "address",
          "name": "",
          "type": "address"
        }
      ],
      "stateMutability": "view",
      "type": "function"
    },
    {
      "inputs": [
        {
          "internalType": "uint256",
          "name": "pId",
          "type": "uint256"
        },
        {
          "internalType": "uint256",
          "name": "stars",
          "type": "uint256"
        }
      ],
      "name": "rateDeliveredParcel",
      "outputs": [],
      "stateMutability": "nonpayable",
      "type": "function"
    },
    {
      "inputs": [],
      "name": "registerAsShipper",
      "outputs": [],
      "stateMutability": "nonpayable",
      "type": "function"
    },
    {
      "inputs": [
        {
          "internalType": "uint256",
          "name": "partner_Id",
          "type": "uint256"
        }
      ],
      "name": "removePartner",
      "outputs": [],
      "stateMutability": "nonpayable",
      "type": "function"
    },
    {
      "inputs": [
        {
          "internalType": "string",
          "name": "itemName",
          "type": "string"
        },
        {
          "internalType": "string",
          "name": "itemDesc",
          "type": "string"
        },
        {
          "internalType": "address",
          "name": "userAddress",
          "type": "address"
        },
        {
          "internalType": "uint256",
          "name": "expectedDelivery",
          "type": "uint256"
        },
        {
          "internalType": "uint256",
          "name": "baseCompensation",
          "type": "uint256"
        },
        {
          "internalType": "uint256",
          "name": "otp",
          "type": "uint256"
        }
      ],
      "name": "shipOrder",
      "outputs": [],
      "stateMutability": "nonpayable",
      "type": "function"
    },
    {
      "inputs": [
        {
          "internalType": "uint256",
          "name": "amount",
          "type": "uint256"
        }
      ],
      "name": "shipperDepositFund",
      "outputs": [],
      "stateMutability": "payable",
      "type": "function"
    },
    {
      "inputs": [],
      "name": "unregisterAsShipper",
      "outputs": [],
      "stateMutability": "nonpayable",
      "type": "function"
    },
    {
      "inputs": [
        {
          "internalType": "uint256",
          "name": "pId",
          "type": "uint256"
        },
        {
          "internalType": "string",
          "name": "location",
          "type": "string"
        }
      ],
      "name": "updateLocation",
      "outputs": [],
      "stateMutability": "nonpayable",
      "type": "function"
    },
    {
      "inputs": [],
      "name": "viewMyParcels",
      "outputs": [
        {
          "components": [
            {
              "internalType": "uint256",
              "name": "id",
              "type": "uint256"
            },
            {
              "internalType": "address",
              "name": "receiver",
              "type": "address"
            },
            {
              "internalType": "address",
              "name": "sender",
              "type": "address"
            },
            {
              "internalType": "string",
              "name": "itemName",
              "type": "string"
            },
            {
              "internalType": "string",
              "name": "itemDesc",
              "type": "string"
            },
            {
              "internalType": "uint256",
              "name": "expectedDelivery",
              "type": "uint256"
            },
            {
              "internalType": "uint256",
              "name": "status",
              "type": "uint256"
            },
            {
              "internalType": "string",
              "name": "currentLocation",
              "type": "string"
            },
            {
              "internalType": "uint256",
              "name": "baseCompensation",
              "type": "uint256"
            },
            {
              "internalType": "uint256",
              "name": "otp",
              "type": "uint256"
            },
            {
              "internalType": "uint256",
              "name": "rating",
              "type": "uint256"
            }
          ],
          "internalType": "struct CamoSuperParcel.Parcel[]",
          "name": "",
          "type": "tuple[]"
        }
      ],
      "stateMutability": "view",
      "type": "function"
    },
    {
      "inputs": [],
      "name": "viewMyPartners",
      "outputs": [
        {
          "components": [
            {
              "internalType": "address",
              "name": "walletAddress",
              "type": "address"
            },
            {
              "internalType": "address",
              "name": "associatedShipper",
              "type": "address"
            },
            {
              "internalType": "int96",
              "name": "salary",
              "type": "int96"
            },
            {
              "internalType": "bool",
              "name": "active",
              "type": "bool"
            }
          ],
          "internalType": "struct CamoSuperParcel.Partner[]",
          "name": "",
          "type": "tuple[]"
        }
      ],
      "stateMutability": "view",
      "type": "function"
    },
    {
      "inputs": [],
      "name": "viewMyShippedParcels",
      "outputs": [
        {
          "components": [
            {
              "internalType": "uint256",
              "name": "id",
              "type": "uint256"
            },
            {
              "internalType": "address",
              "name": "receiver",
              "type": "address"
            },
            {
              "internalType": "address",
              "name": "sender",
              "type": "address"
            },
            {
              "internalType": "string",
              "name": "itemName",
              "type": "string"
            },
            {
              "internalType": "string",
              "name": "itemDesc",
              "type": "string"
            },
            {
              "internalType": "uint256",
              "name": "expectedDelivery",
              "type": "uint256"
            },
            {
              "internalType": "uint256",
              "name": "status",
              "type": "uint256"
            },
            {
              "internalType": "string",
              "name": "currentLocation",
              "type": "string"
            },
            {
              "internalType": "uint256",
              "name": "baseCompensation",
              "type": "uint256"
            },
            {
              "internalType": "uint256",
              "name": "otp",
              "type": "uint256"
            },
            {
              "internalType": "uint256",
              "name": "rating",
              "type": "uint256"
            }
          ],
          "internalType": "struct CamoSuperParcel.Parcel[]",
          "name": "",
          "type": "tuple[]"
        }
      ],
      "stateMutability": "view",
      "type": "function"
    },
    {
      "inputs": [
        {
          "internalType": "uint256",
          "name": "pId",
          "type": "uint256"
        }
      ],
      "name": "viewParcel",
      "outputs": [
        {
          "components": [
            {
              "internalType": "uint256",
              "name": "id",
              "type": "uint256"
            },
            {
              "internalType": "address",
              "name": "receiver",
              "type": "address"
            },
            {
              "internalType": "address",
              "name": "sender",
              "type": "address"
            },
            {
              "internalType": "string",
              "name": "itemName",
              "type": "string"
            },
            {
              "internalType": "string",
              "name": "itemDesc",
              "type": "string"
            },
            {
              "internalType": "uint256",
              "name": "expectedDelivery",
              "type": "uint256"
            },
            {
              "internalType": "uint256",
              "name": "status",
              "type": "uint256"
            },
            {
              "internalType": "string",
              "name": "currentLocation",
              "type": "string"
            },
            {
              "internalType": "uint256",
              "name": "baseCompensation",
              "type": "uint256"
            },
            {
              "internalType": "uint256",
              "name": "otp",
              "type": "uint256"
            },
            {
              "internalType": "uint256",
              "name": "rating",
              "type": "uint256"
            }
          ],
          "internalType": "struct CamoSuperParcel.Parcel",
          "name": "",
          "type": "tuple"
        }
      ],
      "stateMutability": "view",
      "type": "function"
    },
    {
      "inputs": [
        {
          "internalType": "uint256",
          "name": "amount",
          "type": "uint256"
        }
      ],
      "name": "withdrawFundsCollected",
      "outputs": [],
      "stateMutability": "nonpayable",
      "type": "function"
    }
  ],
  "bytecode": "0x60806040526001600255600160035560016004553480156200002057600080fd5b5060405162005f1438038062005f148339818101604052810190620000469190620001ab565b81600160006101000a81548173ffffffffffffffffffffffffffffffffffffffff021916908373ffffffffffffffffffffffffffffffffffffffff160217905550336000806101000a81548173ffffffffffffffffffffffffffffffffffffffff021916908373ffffffffffffffffffffffffffffffffffffffff16021790555080600b60006101000a8154816bffffffffffffffffffffffff0219169083600b0b6bffffffffffffffffffffffff1602179055505050620001f2565b600080fd5b600073ffffffffffffffffffffffffffffffffffffffff82169050919050565b6000620001358262000108565b9050919050565b620001478162000128565b81146200015357600080fd5b50565b60008151905062000167816200013c565b92915050565b600081600b0b9050919050565b62000185816200016d565b81146200019157600080fd5b50565b600081519050620001a5816200017a565b92915050565b60008060408385031215620001c557620001c462000103565b5b6000620001d58582860162000156565b9250506020620001e88582860162000194565b9150509250929050565b615d1280620002026000396000f3fe60806040526004361061011f5760003560e01c80637c6bff43116100a0578063a2168f8211610064578063a2168f821461038a578063ad8972bd146103c7578063c0031b9b146103f0578063c79148ba1461041b578063cf2ddbd7146104465761011f565b80637c6bff43146102b75780637d1d8cc0146102e25780637dbac6f11461030b5780638da5cb5b14610348578063912dc351146103735761011f565b806351a81afc116100e757806351a81afc146101e15780635a0d1ab4146101fd57806362ecf67314610226578063650d0162146102515780636e95470c1461028e5761011f565b806327ed00ee14610124578063385a41f11461014f5780633883e36914610166578063406c05ae1461018f5780634ec0c9e9146101b8575b600080fd5b34801561013057600080fd5b5061013961046f565b6040516101469190614309565b60405180910390f35b34801561015b57600080fd5b50610164610594565b005b34801561017257600080fd5b5061018d60048036038101906101889190614364565b6108c8565b005b34801561019b57600080fd5b506101b660048036038101906101b19190614548565b610d35565b005b3480156101c457600080fd5b506101df60048036038101906101da919061460d565b6111c4565b005b6101fb60048036038101906101f69190614669565b61139c565b005b34801561020957600080fd5b50610224600480360381019061021f9190614364565b6115e1565b005b34801561023257600080fd5b5061023b611ad6565b60405161024891906148fb565b60405180910390f35b34801561025d57600080fd5b5061027860048036038101906102739190614669565b611ff4565b60405161028591906149a9565b60405180910390f35b34801561029a57600080fd5b506102b560048036038101906102b09190614669565b612258565b005b3480156102c357600080fd5b506102cc612310565b6040516102d991906149e1565b60405180910390f35b3480156102ee57600080fd5b5061030960048036038101906103049190614669565b612416565b005b34801561031757600080fd5b50610332600480360381019061032d9190614669565b612675565b60405161033f9190614af9565b60405180910390f35b34801561035457600080fd5b5061035d612a7e565b60405161036a9190614b2a565b60405180910390f35b34801561037f57600080fd5b50610388612aa2565b005b34801561039657600080fd5b506103b160048036038101906103ac9190614669565b612c03565b6040516103be9190614cb3565b60405180910390f35b3480156103d357600080fd5b506103ee60048036038101906103e99190614669565b612d71565b005b3480156103fc57600080fd5b50610405612e9a565b60405161041291906148fb565b60405180910390f35b34801561042757600080fd5b506104306132d4565b60405161043d9190614dd9565b60405180910390f35b34801561045257600080fd5b5061046d60048036038101906104689190614e27565b613637565b005b600080600560003373ffffffffffffffffffffffffffffffffffffffff1673ffffffffffffffffffffffffffffffffffffffff16815260200190815260200160002054146104fe57600560003373ffffffffffffffffffffffffffffffffffffffff1673ffffffffffffffffffffffffffffffffffffffff168152602001908152602001600020549050610591565b6000600660003373ffffffffffffffffffffffffffffffffffffffff1673ffffffffffffffffffffffffffffffffffffffff168152602001908152602001600020541461058c57600660003373ffffffffffffffffffffffffffffffffffffffff1673ffffffffffffffffffffffffffffffffffffffff168152602001908152602001600020549050610591565b600090505b90565b6000600660003373ffffffffffffffffffffffffffffffffffffffff1673ffffffffffffffffffffffffffffffffffffffff1681526020019081526020016000205414610616576040517f08c379a000000000000000000000000000000000000000000000000000000000815260040161060d90614ec4565b60405180910390fd5b600060076000600560003373ffffffffffffffffffffffffffffffffffffffff1673ffffffffffffffffffffffffffffffffffffffff16815260200190815260200160002054815260200190815260200160002060040160009054906101000a900460ff1660ff169050600160ff1681141580156106985750600360ff168114155b6106d7576040517f08c379a00000000000000000000000000000000000000000000000000000000081526004016106ce90614f30565b60405180910390fd5b6107353330600b60009054906101000a9004600b0b600160009054906101000a900473ffffffffffffffffffffffffffffffffffffffff1673ffffffffffffffffffffffffffffffffffffffff16613a63909392919063ffffffff16565b50606060006040518060e001604052803373ffffffffffffffffffffffffffffffffffffffff16815260200183815260200183815260200160008152602001600160ff1681526020016000815260200160008152509050600354600560003373ffffffffffffffffffffffffffffffffffffffff1673ffffffffffffffffffffffffffffffffffffffff168152602001908152602001600020819055508060076000600354815260200190815260200160002060008201518160000160006101000a81548173ffffffffffffffffffffffffffffffffffffffff021916908373ffffffffffffffffffffffffffffffffffffffff160217905550602082015181600101908051906020019061084b9291906140cb565b5060408201518160020190805190602001906108689291906140cb565b506060820151816003015560808201518160040160006101000a81548160ff021916908360ff16021790555060a0820151816005015560c08201518160060155905050600360008154809291906108be90614f7f565b9190505550505050565b60086000600660003373ffffffffffffffffffffffffffffffffffffffff1673ffffffffffffffffffffffffffffffffffffffff16815260200190815260200160002054815260200190815260200160002060020160009054906101000a900460ff16610961576040517f82b4290000000000000000000000000000000000000000000000000000000000815260040160405180910390fd5b600a60008381526020019081526020016000206009015481146109b9576040517f08c379a00000000000000000000000000000000000000000000000000000000081526004016109b090615013565b60405180910390fd5b600160ff16600a60008481526020019081526020016000206006015414806109fa5750600260ff16600a600084815260200190815260200160002060060154145b610a39576040517f08c379a0000000000000000000000000000000000000000000000000000000008152600401610a309061507f565b60405180910390fd5b60405180602001604052806000815250600a60008481526020019081526020016000206007019080519060200190610a72929190614118565b50600360ff16600a6000848152602001908152602001600020600601819055506000610aca600a600085815260200190815260200160002060050154600a600086815260200190815260200160002060080154613ac9565b9050806007600060056000600a600089815260200190815260200160002060020160009054906101000a900473ffffffffffffffffffffffffffffffffffffffff1673ffffffffffffffffffffffffffffffffffffffff1673ffffffffffffffffffffffffffffffffffffffff168152602001908152602001600020548152602001908152602001600020600301541015610b6457600080fd5b60008114610cbf576000600a600085815260200190815260200160002060010160009054906101000a900473ffffffffffffffffffffffffffffffffffffffff1673ffffffffffffffffffffffffffffffffffffffff166108fc839081150290604051600060405180830381858888f19350505050905080610c1b576040517f08c379a0000000000000000000000000000000000000000000000000000000008152600401610c12906150eb565b60405180910390fd5b816007600060056000600a60008a815260200190815260200160002060020160009054906101000a900473ffffffffffffffffffffffffffffffffffffffff1673ffffffffffffffffffffffffffffffffffffffff1673ffffffffffffffffffffffffffffffffffffffff1681526020019081526020016000205481526020019081526020016000206003016000828254610cb6919061510b565b92505081905550505b7f3be6b44b0d8170026cc992b6b6eda259b98e02d16bdfe4b9dd3db223b5420cfd33600a600086815260200190815260200160002060010160009054906101000a900473ffffffffffffffffffffffffffffffffffffffff1685604051610d289392919061513f565b60405180910390a1505050565b600160ff1660076000600560003373ffffffffffffffffffffffffffffffffffffffff1673ffffffffffffffffffffffffffffffffffffffff16815260200190815260200160002054815260200190815260200160002060040160009054906101000a900460ff1660ff1614610dd7576040517f82b4290000000000000000000000000000000000000000000000000000000000815260040160405180910390fd5b428311610e19576040517f08c379a0000000000000000000000000000000000000000000000000000000008152600401610e10906151c2565b60405180910390fd5b8160076000600560003373ffffffffffffffffffffffffffffffffffffffff1673ffffffffffffffffffffffffffffffffffffffff168152602001908152602001600020548152602001908152602001600020600301541015610eb1576040517f08c379a0000000000000000000000000000000000000000000000000000000008152600401610ea89061522e565b60405180910390fd5b600060405180610160016040528060025481526020018673ffffffffffffffffffffffffffffffffffffffff1681526020013373ffffffffffffffffffffffffffffffffffffffff168152602001888152602001878152602001858152602001600160ff16815260200160405180602001604052806000815250815260200184815260200183815260200160008152509050600960008673ffffffffffffffffffffffffffffffffffffffff1673ffffffffffffffffffffffffffffffffffffffff168152602001908152602001600020600254908060018154018082558091505060019003906000526020600020016000909190919091505580600a600060025481526020019081526020016000206000820151816000015560208201518160010160006101000a81548173ffffffffffffffffffffffffffffffffffffffff021916908373ffffffffffffffffffffffffffffffffffffffff16021790555060408201518160020160006101000a81548173ffffffffffffffffffffffffffffffffffffffff021916908373ffffffffffffffffffffffffffffffffffffffff1602179055506060820151816003019080519060200190611075929190614118565b506080820151816004019080519060200190611092929190614118565b5060a0820151816005015560c0820151816006015560e08201518160070190805190602001906110c3929190614118565b506101008201518160080155610120820151816009015561014082015181600a015590505060076000600560003373ffffffffffffffffffffffffffffffffffffffff1673ffffffffffffffffffffffffffffffffffffffff16815260200190815260200160002054815260200190815260200160002060020160025490806001815401808255809150506001900390600052602060002001600090919091909150557f32c1836ded10d94133bd527768a93f4a18336e79a66c70baa8093401c9e3440f338660025460405161119b9392919061513f565b60405180910390a1600260008154809291906111b690614f7f565b919050555050505050505050565b60086000600660003373ffffffffffffffffffffffffffffffffffffffff1673ffffffffffffffffffffffffffffffffffffffff16815260200190815260200160002054815260200190815260200160002060020160009054906101000a900460ff1661125d576040517f82b4290000000000000000000000000000000000000000000000000000000000815260040160405180910390fd5b600160ff16600a600084815260200190815260200160002060060154148061129e5750600260ff16600a600084815260200190815260200160002060060154145b6112dd576040517f08c379a00000000000000000000000000000000000000000000000000000000081526004016112d49061529a565b60405180910390fd5b80600a60008481526020019081526020016000206007019080519060200190611307929190614118565b50600260ff16600a6000848152602001908152602001600020600601819055507fa3c313d9290f28b0a583dcc5ceabc0a50c3124d1ae9ae1630668c1f404d5a6b633600a600085815260200190815260200160002060010160009054906101000a900473ffffffffffffffffffffffffffffffffffffffff16846040516113909392919061513f565b60405180910390a15050565b600160ff1660076000600560003373ffffffffffffffffffffffffffffffffffffffff1673ffffffffffffffffffffffffffffffffffffffff16815260200190815260200160002054815260200190815260200160002060040160009054906101000a900460ff1660ff161461143e576040517f82b4290000000000000000000000000000000000000000000000000000000000815260040160405180910390fd5b60008111611481576040517f08c379a000000000000000000000000000000000000000000000000000000000815260040161147890615306565b60405180910390fd5b600160009054906101000a900473ffffffffffffffffffffffffffffffffffffffff1673ffffffffffffffffffffffffffffffffffffffff166323b872dd3330846040518463ffffffff1660e01b81526004016114e09392919061513f565b6020604051808303816000875af11580156114ff573d6000803e3d6000fd5b505050506040513d601f19601f820116820180604052508101906115239190615352565b508060076000600560003373ffffffffffffffffffffffffffffffffffffffff1673ffffffffffffffffffffffffffffffffffffffff16815260200190815260200160002054815260200190815260200160002060030154611585919061537f565b60076000600560003373ffffffffffffffffffffffffffffffffffffffff1673ffffffffffffffffffffffffffffffffffffffff1681526020019081526020016000205481526020019081526020016000206003018190555050565b6000600a600084815260200190815260200160002060405180610160016040529081600082015481526020016001820160009054906101000a900473ffffffffffffffffffffffffffffffffffffffff1673ffffffffffffffffffffffffffffffffffffffff1673ffffffffffffffffffffffffffffffffffffffff1681526020016002820160009054906101000a900473ffffffffffffffffffffffffffffffffffffffff1673ffffffffffffffffffffffffffffffffffffffff1673ffffffffffffffffffffffffffffffffffffffff1681526020016003820180546116c890615404565b80601f01602080910402602001604051908101604052809291908181526020018280546116f490615404565b80156117415780601f1061171657610100808354040283529160200191611741565b820191906000526020600020905b81548152906001019060200180831161172457829003601f168201915b5050505050815260200160048201805461175a90615404565b80601f016020809104026020016040519081016040528092919081815260200182805461178690615404565b80156117d35780601f106117a8576101008083540402835291602001916117d3565b820191906000526020600020905b8154815290600101906020018083116117b657829003601f168201915b50505050508152602001600582015481526020016006820154815260200160078201805461180090615404565b80601f016020809104026020016040519081016040528092919081815260200182805461182c90615404565b80156118795780601f1061184e57610100808354040283529160200191611879565b820191906000526020600020905b81548152906001019060200180831161185c57829003601f168201915b505050505081526020016008820154815260200160098201548152602001600a8201548152505090503373ffffffffffffffffffffffffffffffffffffffff16816020015173ffffffffffffffffffffffffffffffffffffffff1614611914576040517f08c379a000000000000000000000000000000000000000000000000000000000815260040161190b90615481565b60405180910390fd5b60008161014001511461195c576040517f08c379a0000000000000000000000000000000000000000000000000000000008152600401611953906154ed565b60405180910390fd5b600360ff168160c00151146119a6576040517f08c379a000000000000000000000000000000000000000000000000000000000815260040161199d90615559565b60405180910390fd5b600582111580156119b75750600082115b6119f6576040517f08c379a00000000000000000000000000000000000000000000000000000000081526004016119ed906155c5565b60405180910390fd5b81600a6000858152602001908152602001600020600a018190555060006007600060056000856040015173ffffffffffffffffffffffffffffffffffffffff1673ffffffffffffffffffffffffffffffffffffffff1681526020019081526020016000205481526020019081526020016000209050600060018260060154611a7e919061537f565b670de0b6b3a764000085611a9291906155e5565b611a9c919061566e565b8260050154611aab919061537f565b905060018260060154611abe919061537f565b82600601819055508082600501819055505050505050565b6060600160ff1660076000600560003373ffffffffffffffffffffffffffffffffffffffff1673ffffffffffffffffffffffffffffffffffffffff16815260200190815260200160002054815260200190815260200160002060040160009054906101000a900460ff1660ff1614611b7a576040517f82b4290000000000000000000000000000000000000000000000000000000000815260040160405180910390fd5b600060076000600560003373ffffffffffffffffffffffffffffffffffffffff1673ffffffffffffffffffffffffffffffffffffffff1681526020019081526020016000205481526020019081526020016000206002018054905067ffffffffffffffff811115611bee57611bed6143bf565b5b604051908082528060200260200182016040528015611c2757816020015b611c1461419e565b815260200190600190039081611c0c5790505b50905060005b60076000600560003373ffffffffffffffffffffffffffffffffffffffff1673ffffffffffffffffffffffffffffffffffffffff16815260200190815260200160002054815260200190815260200160002060020180549050811015611fec57600a600060076000600560003373ffffffffffffffffffffffffffffffffffffffff1673ffffffffffffffffffffffffffffffffffffffff1681526020019081526020016000205481526020019081526020016000206002018381548110611cf857611cf761569f565b5b9060005260206000200154815260200190815260200160002060405180610160016040529081600082015481526020016001820160009054906101000a900473ffffffffffffffffffffffffffffffffffffffff1673ffffffffffffffffffffffffffffffffffffffff1673ffffffffffffffffffffffffffffffffffffffff1681526020016002820160009054906101000a900473ffffffffffffffffffffffffffffffffffffffff1673ffffffffffffffffffffffffffffffffffffffff1673ffffffffffffffffffffffffffffffffffffffff168152602001600382018054611de390615404565b80601f0160208091040260200160405190810160405280929190818152602001828054611e0f90615404565b8015611e5c5780601f10611e3157610100808354040283529160200191611e5c565b820191906000526020600020905b815481529060010190602001808311611e3f57829003601f168201915b50505050508152602001600482018054611e7590615404565b80601f0160208091040260200160405190810160405280929190818152602001828054611ea190615404565b8015611eee5780601f10611ec357610100808354040283529160200191611eee565b820191906000526020600020905b815481529060010190602001808311611ed157829003601f168201915b505050505081526020016005820154815260200160068201548152602001600782018054611f1b90615404565b80601f0160208091040260200160405190810160405280929190818152602001828054611f4790615404565b8015611f945780601f10611f6957610100808354040283529160200191611f94565b820191906000526020600020905b815481529060010190602001808311611f7757829003601f168201915b505050505081526020016008820154815260200160098201548152602001600a82015481525050828281518110611fce57611fcd61569f565b5b60200260200101819052508080611fe490614f7f565b915050611c2d565b508091505090565b611ffc614224565b600160ff1660076000600560003373ffffffffffffffffffffffffffffffffffffffff1673ffffffffffffffffffffffffffffffffffffffff16815260200190815260200160002054815260200190815260200160002060040160009054906101000a900460ff1660ff161461209e576040517f82b4290000000000000000000000000000000000000000000000000000000000815260040160405180910390fd5b6000821415801561211057503373ffffffffffffffffffffffffffffffffffffffff166008600084815260200190815260200160002060010160009054906101000a900473ffffffffffffffffffffffffffffffffffffffff1673ffffffffffffffffffffffffffffffffffffffff16145b61214f576040517f08c379a00000000000000000000000000000000000000000000000000000000081526004016121469061571a565b60405180910390fd5b600860008381526020019081526020016000206040518060800160405290816000820160009054906101000a900473ffffffffffffffffffffffffffffffffffffffff1673ffffffffffffffffffffffffffffffffffffffff1673ffffffffffffffffffffffffffffffffffffffff1681526020016001820160009054906101000a900473ffffffffffffffffffffffffffffffffffffffff1673ffffffffffffffffffffffffffffffffffffffff1673ffffffffffffffffffffffffffffffffffffffff1681526020016001820160149054906101000a9004600b0b600b0b600b0b81526020016002820160009054906101000a900460ff1615151515815250509050919050565b60008054906101000a900473ffffffffffffffffffffffffffffffffffffffff1673ffffffffffffffffffffffffffffffffffffffff163373ffffffffffffffffffffffffffffffffffffffff16146122dd576040517f82b4290000000000000000000000000000000000000000000000000000000000815260040160405180910390fd5b60036007600083815260200190815260200160002060040160006101000a81548160ff021916908360ff16021790555050565b600080600560003373ffffffffffffffffffffffffffffffffffffffff1673ffffffffffffffffffffffffffffffffffffffff16815260200190815260200160002054146123615760019050612413565b6000600660003373ffffffffffffffffffffffffffffffffffffffff1673ffffffffffffffffffffffffffffffffffffffff16815260200190815260200160002054146123b15760029050612413565b60008054906101000a900473ffffffffffffffffffffffffffffffffffffffff1673ffffffffffffffffffffffffffffffffffffffff163373ffffffffffffffffffffffffffffffffffffffff160361240e576103e79050612413565b600390505b90565b600160ff1660076000600560003373ffffffffffffffffffffffffffffffffffffffff1673ffffffffffffffffffffffffffffffffffffffff16815260200190815260200160002054815260200190815260200160002060040160009054906101000a900460ff1660ff16146124b8576040517f82b4290000000000000000000000000000000000000000000000000000000000815260040160405180910390fd5b3373ffffffffffffffffffffffffffffffffffffffff166008600083815260200190815260200160002060010160009054906101000a900473ffffffffffffffffffffffffffffffffffffffff1673ffffffffffffffffffffffffffffffffffffffff161461255c576040517f08c379a000000000000000000000000000000000000000000000000000000000815260040161255390615786565b60405180910390fd5b6008600082815260200190815260200160002060020160009054906101000a900460ff166125bf576040517f08c379a00000000000000000000000000000000000000000000000000000000081526004016125b6906157f2565b60405180910390fd5b612642336008600084815260200190815260200160002060000160009054906101000a900473ffffffffffffffffffffffffffffffffffffffff16600160009054906101000a900473ffffffffffffffffffffffffffffffffffffffff1673ffffffffffffffffffffffffffffffffffffffff16613b0f9092919063ffffffff16565b5060006008600083815260200190815260200160002060020160006101000a81548160ff02191690831515021790555050565b61267d61419e565b600160ff1660076000600560003373ffffffffffffffffffffffffffffffffffffffff1673ffffffffffffffffffffffffffffffffffffffff16815260200190815260200160002054815260200190815260200160002060040160009054906101000a900460ff1660ff161461271f576040517f82b4290000000000000000000000000000000000000000000000000000000000815260040160405180910390fd5b3373ffffffffffffffffffffffffffffffffffffffff16600a600084815260200190815260200160002060020160009054906101000a900473ffffffffffffffffffffffffffffffffffffffff1673ffffffffffffffffffffffffffffffffffffffff16146127ba576040517f82b4290000000000000000000000000000000000000000000000000000000000815260040160405180910390fd5b600a600083815260200190815260200160002060405180610160016040529081600082015481526020016001820160009054906101000a900473ffffffffffffffffffffffffffffffffffffffff1673ffffffffffffffffffffffffffffffffffffffff1673ffffffffffffffffffffffffffffffffffffffff1681526020016002820160009054906101000a900473ffffffffffffffffffffffffffffffffffffffff1673ffffffffffffffffffffffffffffffffffffffff1673ffffffffffffffffffffffffffffffffffffffff16815260200160038201805461289f90615404565b80601f01602080910402602001604051908101604052809291908181526020018280546128cb90615404565b80156129185780601f106128ed57610100808354040283529160200191612918565b820191906000526020600020905b8154815290600101906020018083116128fb57829003601f168201915b5050505050815260200160048201805461293190615404565b80601f016020809104026020016040519081016040528092919081815260200182805461295d90615404565b80156129aa5780601f1061297f576101008083540402835291602001916129aa565b820191906000526020600020905b81548152906001019060200180831161298d57829003601f168201915b5050505050815260200160058201548152602001600682015481526020016007820180546129d790615404565b80601f0160208091040260200160405190810160405280929190818152602001828054612a0390615404565b8015612a505780601f10612a2557610100808354040283529160200191612a50565b820191906000526020600020905b815481529060010190602001808311612a3357829003601f168201915b505050505081526020016008820154815260200160098201548152602001600a820154815250509050919050565b60008054906101000a900473ffffffffffffffffffffffffffffffffffffffff1681565b600160ff1660076000600560003373ffffffffffffffffffffffffffffffffffffffff1673ffffffffffffffffffffffffffffffffffffffff16815260200190815260200160002054815260200190815260200160002060040160009054906101000a900460ff1660ff1614612b44576040517f82b4290000000000000000000000000000000000000000000000000000000000815260040160405180910390fd5b612b913330600160009054906101000a900473ffffffffffffffffffffffffffffffffffffffff1673ffffffffffffffffffffffffffffffffffffffff16613b0f9092919063ffffffff16565b50600260076000600560003373ffffffffffffffffffffffffffffffffffffffff1673ffffffffffffffffffffffffffffffffffffffff16815260200190815260200160002054815260200190815260200160002060040160006101000a81548160ff021916908360ff160217905550565b612c0b61427d565b600760008381526020019081526020016000206040518060e00160405290816000820160009054906101000a900473ffffffffffffffffffffffffffffffffffffffff1673ffffffffffffffffffffffffffffffffffffffff1673ffffffffffffffffffffffffffffffffffffffff16815260200160018201805480602002602001604051908101604052809291908181526020018280548015612cce57602002820191906000526020600020905b815481526020019060010190808311612cba575b5050505050815260200160028201805480602002602001604051908101604052809291908181526020018280548015612d2657602002820191906000526020600020905b815481526020019060010190808311612d12575b50505050508152602001600382015481526020016004820160009054906101000a900460ff1660ff1660ff168152602001600582015481526020016006820154815250509050919050565b60008054906101000a900473ffffffffffffffffffffffffffffffffffffffff1673ffffffffffffffffffffffffffffffffffffffff163373ffffffffffffffffffffffffffffffffffffffff1614612df6576040517f82b4290000000000000000000000000000000000000000000000000000000000815260040160405180910390fd5b600160009054906101000a900473ffffffffffffffffffffffffffffffffffffffff1673ffffffffffffffffffffffffffffffffffffffff1663a9059cbb33836040518363ffffffff1660e01b8152600401612e53929190615812565b6020604051808303816000875af1158015612e72573d6000803e3d6000fd5b505050506040513d601f19601f82011682018060405250810190612e969190615352565b5050565b60606000600960003373ffffffffffffffffffffffffffffffffffffffff1673ffffffffffffffffffffffffffffffffffffffff1681526020019081526020016000208054905067ffffffffffffffff811115612efa57612ef96143bf565b5b604051908082528060200260200182016040528015612f3357816020015b612f2061419e565b815260200190600190039081612f185790505b50905060005b600960003373ffffffffffffffffffffffffffffffffffffffff1673ffffffffffffffffffffffffffffffffffffffff168152602001908152602001600020805490508110156132cc57600a6000600960003373ffffffffffffffffffffffffffffffffffffffff1673ffffffffffffffffffffffffffffffffffffffff1681526020019081526020016000208381548110612fd857612fd761569f565b5b9060005260206000200154815260200190815260200160002060405180610160016040529081600082015481526020016001820160009054906101000a900473ffffffffffffffffffffffffffffffffffffffff1673ffffffffffffffffffffffffffffffffffffffff1673ffffffffffffffffffffffffffffffffffffffff1681526020016002820160009054906101000a900473ffffffffffffffffffffffffffffffffffffffff1673ffffffffffffffffffffffffffffffffffffffff1673ffffffffffffffffffffffffffffffffffffffff1681526020016003820180546130c390615404565b80601f01602080910402602001604051908101604052809291908181526020018280546130ef90615404565b801561313c5780601f106131115761010080835404028352916020019161313c565b820191906000526020600020905b81548152906001019060200180831161311f57829003601f168201915b5050505050815260200160048201805461315590615404565b80601f016020809104026020016040519081016040528092919081815260200182805461318190615404565b80156131ce5780601f106131a3576101008083540402835291602001916131ce565b820191906000526020600020905b8154815290600101906020018083116131b157829003601f168201915b5050505050815260200160058201548152602001600682015481526020016007820180546131fb90615404565b80601f016020809104026020016040519081016040528092919081815260200182805461322790615404565b80156132745780601f1061324957610100808354040283529160200191613274565b820191906000526020600020905b81548152906001019060200180831161325757829003601f168201915b505050505081526020016008820154815260200160098201548152602001600a820154815250508282815181106132ae576132ad61569f565b5b602002602001018190525080806132c490614f7f565b915050612f39565b508091505090565b6060600160ff1660076000600560003373ffffffffffffffffffffffffffffffffffffffff1673ffffffffffffffffffffffffffffffffffffffff16815260200190815260200160002054815260200190815260200160002060040160009054906101000a900460ff1660ff1614613378576040517f82b4290000000000000000000000000000000000000000000000000000000000815260040160405180910390fd5b600060076000600560003373ffffffffffffffffffffffffffffffffffffffff1673ffffffffffffffffffffffffffffffffffffffff1681526020019081526020016000205481526020019081526020016000206001018054905067ffffffffffffffff8111156133ec576133eb6143bf565b5b60405190808252806020026020018201604052801561342557816020015b613412614224565b81526020019060019003908161340a5790505b50905060005b60076000600560003373ffffffffffffffffffffffffffffffffffffffff1673ffffffffffffffffffffffffffffffffffffffff1681526020019081526020016000205481526020019081526020016000206001018054905081101561362f576008600060076000600560003373ffffffffffffffffffffffffffffffffffffffff1673ffffffffffffffffffffffffffffffffffffffff16815260200190815260200160002054815260200190815260200160002060010183815481106134f6576134f561569f565b5b906000526020600020015481526020019081526020016000206040518060800160405290816000820160009054906101000a900473ffffffffffffffffffffffffffffffffffffffff1673ffffffffffffffffffffffffffffffffffffffff1673ffffffffffffffffffffffffffffffffffffffff1681526020016001820160009054906101000a900473ffffffffffffffffffffffffffffffffffffffff1673ffffffffffffffffffffffffffffffffffffffff1673ffffffffffffffffffffffffffffffffffffffff1681526020016001820160149054906101000a9004600b0b600b0b600b0b81526020016002820160009054906101000a900460ff1615151515815250508282815181106136115761361061569f565b5b6020026020010181905250808061362790614f7f565b91505061342b565b508091505090565b600160ff1660076000600560003373ffffffffffffffffffffffffffffffffffffffff1673ffffffffffffffffffffffffffffffffffffffff16815260200190815260200160002054815260200190815260200160002060040160009054906101000a900460ff1660ff16146136d9576040517f82b4290000000000000000000000000000000000000000000000000000000000815260040160405180910390fd5b6000600560008473ffffffffffffffffffffffffffffffffffffffff1673ffffffffffffffffffffffffffffffffffffffff168152602001908152602001600020541461375b576040517f08c379a000000000000000000000000000000000000000000000000000000000815260040161375290615887565b60405180910390fd5b6000600660008473ffffffffffffffffffffffffffffffffffffffff1673ffffffffffffffffffffffffffffffffffffffff16815260200190815260200160002054146137dd576040517f08c379a00000000000000000000000000000000000000000000000000000000081526004016137d4906158f3565b60405180910390fd5b61382c338383600160009054906101000a900473ffffffffffffffffffffffffffffffffffffffff1673ffffffffffffffffffffffffffffffffffffffff16613a63909392919063ffffffff16565b50600060405180608001604052808473ffffffffffffffffffffffffffffffffffffffff1681526020013373ffffffffffffffffffffffffffffffffffffffff16815260200183600b0b8152602001600115158152509050600454600660008573ffffffffffffffffffffffffffffffffffffffff1673ffffffffffffffffffffffffffffffffffffffff168152602001908152602001600020819055508060086000600454815260200190815260200160002060008201518160000160006101000a81548173ffffffffffffffffffffffffffffffffffffffff021916908373ffffffffffffffffffffffffffffffffffffffff16021790555060208201518160010160006101000a81548173ffffffffffffffffffffffffffffffffffffffff021916908373ffffffffffffffffffffffffffffffffffffffff16021790555060408201518160010160146101000a8154816bffffffffffffffffffffffff0219169083600b0b6bffffffffffffffffffffffff16021790555060608201518160020160006101000a81548160ff02191690831515021790555090505060076000600560003373ffffffffffffffffffffffffffffffffffffffff1673ffffffffffffffffffffffffffffffffffffffff16815260200190815260200160002054815260200190815260200160002060010160045490806001815401808255809150506001900390600052602060002001600090919091909150556001600454613a58919061537f565b600481905550505050565b6000613abf85858585600067ffffffffffffffff811115613a8757613a866143bf565b5b6040519080825280601f01601f191660200182016040528015613ab95781602001600182028036833780820191505090505b50613b73565b9050949350505050565b6000428310613adb5760009050613b09565b6000620151808442613aed919061510b565b613af7919061566e565b90508281613b0591906155e5565b9150505b92915050565b6000613b6a848484600067ffffffffffffffff811115613b3257613b316143bf565b5b6040519080825280601f01601f191660200182016040528015613b645781602001600182028036833780820191505090505b50613cdd565b90509392505050565b6000806000613b8188613e44565b915091508173ffffffffffffffffffffffffffffffffffffffff166339255d5b828373ffffffffffffffffffffffffffffffffffffffff166394229ecb8c8c8c8c600067ffffffffffffffff811115613bdd57613bdc6143bf565b5b6040519080825280601f01601f191660200182016040528015613c0f5781602001600182028036833780820191505090505b50604051602401613c249594939291906159d6565b604051602081830303815290604052915060e01b6020820180517bffffffffffffffffffffffffffffffffffffffffffffffffffffffff8381831617835250505050876040518463ffffffff1660e01b8152600401613c8593929190615a51565b6000604051808303816000875af1158015613ca4573d6000803e3d6000fd5b505050506040513d6000823e3d601f19601f82011682018060405250810190613ccd9190615b37565b5060019250505095945050505050565b6000806000613ceb87613e44565b915091508173ffffffffffffffffffffffffffffffffffffffff166339255d5b828373ffffffffffffffffffffffffffffffffffffffff1663b4b333c68b8b8b600067ffffffffffffffff811115613d4657613d456143bf565b5b6040519080825280601f01601f191660200182016040528015613d785781602001600182028036833780820191505090505b50604051602401613d8c9493929190615b80565b604051602081830303815290604052915060e01b6020820180517bffffffffffffffffffffffffffffffffffffffffffffffffffffffff8381831617835250505050876040518463ffffffff1660e01b8152600401613ded93929190615a51565b6000604051808303816000875af1158015613e0c573d6000803e3d6000fd5b505050506040513d6000823e3d601f19601f82011682018060405250810190613e359190615b37565b50600192505050949350505050565b6000807f65599bf746e17a00ea62e3610586992d88101b78eec3cf380706621fb97ea8375491507fb969d79d88acd02d04ed7ee7d43b949e7daf093d363abcfbbc43dfdfd1ce969a549050600073ffffffffffffffffffffffffffffffffffffffff168173ffffffffffffffffffffffffffffffffffffffff160361404c57600073ffffffffffffffffffffffffffffffffffffffff168273ffffffffffffffffffffffffffffffffffffffff1603613f69578273ffffffffffffffffffffffffffffffffffffffff166320bc44256040518163ffffffff1660e01b8152600401602060405180830381865afa158015613f42573d6000803e3d6000fd5b505050506040513d601f19601f82011682018060405250810190613f669190615be1565b91505b8173ffffffffffffffffffffffffffffffffffffffff1663b6d200de7fa9214cc96615e0085d3bb077758db69497dc2dce3b2b1e97bc93c3d18d83efd36040518263ffffffff1660e01b8152600401613fc29190615c27565b602060405180830381865afa158015613fdf573d6000803e3d6000fd5b505050506040513d601f19601f820116820180604052508101906140039190615c80565b9050817f65599bf746e17a00ea62e3610586992d88101b78eec3cf380706621fb97ea83755807fb969d79d88acd02d04ed7ee7d43b949e7daf093d363abcfbbc43dfdfd1ce969a555b600073ffffffffffffffffffffffffffffffffffffffff168273ffffffffffffffffffffffffffffffffffffffff160361408957614088615cad565b5b600073ffffffffffffffffffffffffffffffffffffffff168173ffffffffffffffffffffffffffffffffffffffff16036140c6576140c5615cad565b5b915091565b828054828255906000526020600020908101928215614107579160200282015b828111156141065782518255916020019190600101906140eb565b5b50905061411491906142d3565b5090565b82805461412490615404565b90600052602060002090601f016020900481019282614146576000855561418d565b82601f1061415f57805160ff191683800117855561418d565b8280016001018555821561418d579182015b8281111561418c578251825591602001919060010190614171565b5b50905061419a91906142d3565b5090565b60405180610160016040528060008152602001600073ffffffffffffffffffffffffffffffffffffffff168152602001600073ffffffffffffffffffffffffffffffffffffffff16815260200160608152602001606081526020016000815260200160008152602001606081526020016000815260200160008152602001600081525090565b6040518060800160405280600073ffffffffffffffffffffffffffffffffffffffff168152602001600073ffffffffffffffffffffffffffffffffffffffff1681526020016000600b0b81526020016000151581525090565b6040518060e00160405280600073ffffffffffffffffffffffffffffffffffffffff168152602001606081526020016060815260200160008152602001600060ff16815260200160008152602001600081525090565b5b808211156142ec5760008160009055506001016142d4565b5090565b6000819050919050565b614303816142f0565b82525050565b600060208201905061431e60008301846142fa565b92915050565b6000604051905090565b600080fd5b600080fd5b614341816142f0565b811461434c57600080fd5b50565b60008135905061435e81614338565b92915050565b6000806040838503121561437b5761437a61432e565b5b60006143898582860161434f565b925050602061439a8582860161434f565b9150509250929050565b600080fd5b600080fd5b6000601f19601f8301169050919050565b7f4e487b7100000000000000000000000000000000000000000000000000000000600052604160045260246000fd5b6143f7826143ae565b810181811067ffffffffffffffff82111715614416576144156143bf565b5b80604052505050565b6000614429614324565b905061443582826143ee565b919050565b600067ffffffffffffffff821115614455576144546143bf565b5b61445e826143ae565b9050602081019050919050565b82818337600083830152505050565b600061448d6144888461443a565b61441f565b9050828152602081018484840111156144a9576144a86143a9565b5b6144b484828561446b565b509392505050565b600082601f8301126144d1576144d06143a4565b5b81356144e184826020860161447a565b91505092915050565b600073ffffffffffffffffffffffffffffffffffffffff82169050919050565b6000614515826144ea565b9050919050565b6145258161450a565b811461453057600080fd5b50565b6000813590506145428161451c565b92915050565b60008060008060008060c087890312156145655761456461432e565b5b600087013567ffffffffffffffff81111561458357614582614333565b5b61458f89828a016144bc565b965050602087013567ffffffffffffffff8111156145b0576145af614333565b5b6145bc89828a016144bc565b95505060406145cd89828a01614533565b94505060606145de89828a0161434f565b93505060806145ef89828a0161434f565b92505060a061460089828a0161434f565b9150509295509295509295565b600080604083850312156146245761462361432e565b5b60006146328582860161434f565b925050602083013567ffffffffffffffff81111561465357614652614333565b5b61465f858286016144bc565b9150509250929050565b60006020828403121561467f5761467e61432e565b5b600061468d8482850161434f565b91505092915050565b600081519050919050565b600082825260208201905092915050565b6000819050602082019050919050565b6146cb816142f0565b82525050565b6146da8161450a565b82525050565b600081519050919050565b600082825260208201905092915050565b60005b8381101561471a5780820151818401526020810190506146ff565b83811115614729576000848401525b50505050565b600061473a826146e0565b61474481856146eb565b93506147548185602086016146fc565b61475d816143ae565b840191505092915050565b60006101608301600083015161478160008601826146c2565b50602083015161479460208601826146d1565b5060408301516147a760408601826146d1565b50606083015184820360608601526147bf828261472f565b915050608083015184820360808601526147d9828261472f565b91505060a08301516147ee60a08601826146c2565b5060c083015161480160c08601826146c2565b5060e083015184820360e0860152614819828261472f565b9150506101008301516148306101008601826146c2565b506101208301516148456101208601826146c2565b5061014083015161485a6101408601826146c2565b508091505092915050565b60006148718383614768565b905092915050565b6000602082019050919050565b600061489182614696565b61489b81856146a1565b9350836020820285016148ad856146b2565b8060005b858110156148e957848403895281516148ca8582614865565b94506148d583614879565b925060208a019950506001810190506148b1565b50829750879550505050505092915050565b600060208201905081810360008301526149158184614886565b905092915050565b600081600b0b9050919050565b6149338161491d565b82525050565b60008115159050919050565b61494e81614939565b82525050565b60808201600082015161496a60008501826146d1565b50602082015161497d60208501826146d1565b506040820151614990604085018261492a565b5060608201516149a36060850182614945565b50505050565b60006080820190506149be6000830184614954565b92915050565b600061ffff82169050919050565b6149db816149c4565b82525050565b60006020820190506149f660008301846149d2565b92915050565b600061016083016000830151614a1560008601826146c2565b506020830151614a2860208601826146d1565b506040830151614a3b60408601826146d1565b5060608301518482036060860152614a53828261472f565b91505060808301518482036080860152614a6d828261472f565b91505060a0830151614a8260a08601826146c2565b5060c0830151614a9560c08601826146c2565b5060e083015184820360e0860152614aad828261472f565b915050610100830151614ac46101008601826146c2565b50610120830151614ad96101208601826146c2565b50610140830151614aee6101408601826146c2565b508091505092915050565b60006020820190508181036000830152614b1381846149fc565b905092915050565b614b248161450a565b82525050565b6000602082019050614b3f6000830184614b1b565b92915050565b600081519050919050565b600082825260208201905092915050565b6000819050602082019050919050565b6000614b7d83836146c2565b60208301905092915050565b6000602082019050919050565b6000614ba182614b45565b614bab8185614b50565b9350614bb683614b61565b8060005b83811015614be7578151614bce8882614b71565b9750614bd983614b89565b925050600181019050614bba565b5085935050505092915050565b600060ff82169050919050565b614c0a81614bf4565b82525050565b600060e083016000830151614c2860008601826146d1565b5060208301518482036020860152614c408282614b96565b91505060408301518482036040860152614c5a8282614b96565b9150506060830151614c6f60608601826146c2565b506080830151614c826080860182614c01565b5060a0830151614c9560a08601826146c2565b5060c0830151614ca860c08601826146c2565b508091505092915050565b60006020820190508181036000830152614ccd8184614c10565b905092915050565b600081519050919050565b600082825260208201905092915050565b6000819050602082019050919050565b608082016000820151614d1760008501826146d1565b506020820151614d2a60208501826146d1565b506040820151614d3d604085018261492a565b506060820151614d506060850182614945565b50505050565b6000614d628383614d01565b60808301905092915050565b6000602082019050919050565b6000614d8682614cd5565b614d908185614ce0565b9350614d9b83614cf1565b8060005b83811015614dcc578151614db38882614d56565b9750614dbe83614d6e565b925050600181019050614d9f565b5085935050505092915050565b60006020820190508181036000830152614df38184614d7b565b905092915050565b614e048161491d565b8114614e0f57600080fd5b50565b600081359050614e2181614dfb565b92915050565b60008060408385031215614e3e57614e3d61432e565b5b6000614e4c85828601614533565b9250506020614e5d85828601614e12565b9150509250929050565b600082825260208201905092915050565b7f3400000000000000000000000000000000000000000000000000000000000000600082015250565b6000614eae600183614e67565b9150614eb982614e78565b602082019050919050565b60006020820190508181036000830152614edd81614ea1565b9050919050565b7f3500000000000000000000000000000000000000000000000000000000000000600082015250565b6000614f1a600183614e67565b9150614f2582614ee4565b602082019050919050565b60006020820190508181036000830152614f4981614f0d565b9050919050565b7f4e487b7100000000000000000000000000000000000000000000000000000000600052601160045260246000fd5b6000614f8a826142f0565b91507fffffffffffffffffffffffffffffffffffffffffffffffffffffffffffffffff8203614fbc57614fbb614f50565b5b600182019050919050565b7f3131000000000000000000000000000000000000000000000000000000000000600082015250565b6000614ffd600283614e67565b915061500882614fc7565b602082019050919050565b6000602082019050818103600083015261502c81614ff0565b9050919050565b7f3132000000000000000000000000000000000000000000000000000000000000600082015250565b6000615069600283614e67565b915061507482615033565b602082019050919050565b600060208201905081810360008301526150988161505c565b9050919050565b7f3134000000000000000000000000000000000000000000000000000000000000600082015250565b60006150d5600283614e67565b91506150e08261509f565b602082019050919050565b60006020820190508181036000830152615104816150c8565b9050919050565b6000615116826142f0565b9150615121836142f0565b92508282101561513457615133614f50565b5b828203905092915050565b60006060820190506151546000830186614b1b565b6151616020830185614b1b565b61516e60408301846142fa565b949350505050565b7f496e76616c696420657870656374656444656c69766572790000000000000000600082015250565b60006151ac601883614e67565b91506151b782615176565b602082019050919050565b600060208201905081810360008301526151db8161519f565b9050919050565b7f3230000000000000000000000000000000000000000000000000000000000000600082015250565b6000615218600283614e67565b9150615223826151e2565b602082019050919050565b600060208201905081810360008301526152478161520b565b9050919050565b7f3130000000000000000000000000000000000000000000000000000000000000600082015250565b6000615284600283614e67565b915061528f8261524e565b602082019050919050565b600060208201905081810360008301526152b381615277565b9050919050565b7f3231000000000000000000000000000000000000000000000000000000000000600082015250565b60006152f0600283614e67565b91506152fb826152ba565b602082019050919050565b6000602082019050818103600083015261531f816152e3565b9050919050565b61532f81614939565b811461533a57600080fd5b50565b60008151905061534c81615326565b92915050565b6000602082840312156153685761536761432e565b5b60006153768482850161533d565b91505092915050565b600061538a826142f0565b9150615395836142f0565b9250827fffffffffffffffffffffffffffffffffffffffffffffffffffffffffffffffff038211156153ca576153c9614f50565b5b828201905092915050565b7f4e487b7100000000000000000000000000000000000000000000000000000000600052602260045260246000fd5b6000600282049050600182168061541c57607f821691505b60208210810361542f5761542e6153d5565b5b50919050565b7f3135000000000000000000000000000000000000000000000000000000000000600082015250565b600061546b600283614e67565b915061547682615435565b602082019050919050565b6000602082019050818103600083015261549a8161545e565b9050919050565b7f3136000000000000000000000000000000000000000000000000000000000000600082015250565b60006154d7600283614e67565b91506154e2826154a1565b602082019050919050565b60006020820190508181036000830152615506816154ca565b9050919050565b7f3137000000000000000000000000000000000000000000000000000000000000600082015250565b6000615543600283614e67565b915061554e8261550d565b602082019050919050565b6000602082019050818103600083015261557281615536565b9050919050565b7f3138000000000000000000000000000000000000000000000000000000000000600082015250565b60006155af600283614e67565b91506155ba82615579565b602082019050919050565b600060208201905081810360008301526155de816155a2565b9050919050565b60006155f0826142f0565b91506155fb836142f0565b9250817fffffffffffffffffffffffffffffffffffffffffffffffffffffffffffffffff048311821515161561563457615633614f50565b5b828202905092915050565b7f4e487b7100000000000000000000000000000000000000000000000000000000600052601260045260246000fd5b6000615679826142f0565b9150615684836142f0565b9250826156945761569361563f565b5b828204905092915050565b7f4e487b7100000000000000000000000000000000000000000000000000000000600052603260045260246000fd5b7f3139000000000000000000000000000000000000000000000000000000000000600082015250565b6000615704600283614e67565b915061570f826156ce565b602082019050919050565b60006020820190508181036000830152615733816156f7565b9050919050565b7f3800000000000000000000000000000000000000000000000000000000000000600082015250565b6000615770600183614e67565b915061577b8261573a565b602082019050919050565b6000602082019050818103600083015261579f81615763565b9050919050565b7f3900000000000000000000000000000000000000000000000000000000000000600082015250565b60006157dc600183614e67565b91506157e7826157a6565b602082019050919050565b6000602082019050818103600083015261580b816157cf565b9050919050565b60006040820190506158276000830185614b1b565b61583460208301846142fa565b9392505050565b7f3600000000000000000000000000000000000000000000000000000000000000600082015250565b6000615871600183614e67565b915061587c8261583b565b602082019050919050565b600060208201905081810360008301526158a081615864565b9050919050565b7f3700000000000000000000000000000000000000000000000000000000000000600082015250565b60006158dd600183614e67565b91506158e8826158a7565b602082019050919050565b6000602082019050818103600083015261590c816158d0565b9050919050565b6000819050919050565b600061593861593361592e846144ea565b615913565b6144ea565b9050919050565b600061594a8261591d565b9050919050565b600061595c8261593f565b9050919050565b61596c81615951565b82525050565b61597b8161491d565b82525050565b600081519050919050565b600082825260208201905092915050565b60006159a882615981565b6159b2818561598c565b93506159c28185602086016146fc565b6159cb816143ae565b840191505092915050565b600060a0820190506159eb6000830188615963565b6159f86020830187614b1b565b615a056040830186614b1b565b615a126060830185615972565b8181036080830152615a24818461599d565b90509695505050505050565b6000615a3b8261593f565b9050919050565b615a4b81615a30565b82525050565b6000606082019050615a666000830186615a42565b8181036020830152615a78818561599d565b90508181036040830152615a8c818461599d565b9050949350505050565b600067ffffffffffffffff821115615ab157615ab06143bf565b5b615aba826143ae565b9050602081019050919050565b6000615ada615ad584615a96565b61441f565b905082815260208101848484011115615af657615af56143a9565b5b615b018482856146fc565b509392505050565b600082601f830112615b1e57615b1d6143a4565b5b8151615b2e848260208601615ac7565b91505092915050565b600060208284031215615b4d57615b4c61432e565b5b600082015167ffffffffffffffff811115615b6b57615b6a614333565b5b615b7784828501615b09565b91505092915050565b6000608082019050615b956000830187615963565b615ba26020830186614b1b565b615baf6040830185614b1b565b8181036060830152615bc1818461599d565b905095945050505050565b600081519050615bdb8161451c565b92915050565b600060208284031215615bf757615bf661432e565b5b6000615c0584828501615bcc565b91505092915050565b6000819050919050565b615c2181615c0e565b82525050565b6000602082019050615c3c6000830184615c18565b92915050565b6000615c4d8261450a565b9050919050565b615c5d81615c42565b8114615c6857600080fd5b50565b600081519050615c7a81615c54565b92915050565b600060208284031215615c9657615c9561432e565b5b6000615ca484828501615c6b565b91505092915050565b7f4e487b7100000000000000000000000000000000000000000000000000000000600052600160045260246000fdfea26469706673582212203b2ddc11423da96727d9fe4166953129dfe63dfff6fcae4eed9d575b55f10f3f64736f6c634300080e0033",
  "linkReferences": {},
  "deployedLinkReferences": {}
}