{
  "_format": "hh-sol-artifact-1",
  "contractName": "CamoSuperParcel",
  "sourceName": "contracts/CamoSuperParcel.sol",
  "abi": [
    {
      "inputs": [
        {
          "internalType": "address",
          "name": "token_addr",
          "type": "address"
        },
        {
          "internalType": "int96",
          "name": "shipperFee_",
          "type": "int96"
        }
      ],
      "stateMutability": "nonpayable",
      "type": "constructor"
    },
    {
      "inputs": [],
      "name": "Unauthorized",
      "type": "error"
    },
    {
      "anonymous": false,
      "inputs": [
        {
          "indexed": false,
          "internalType": "address",
          "name": "",
          "type": "address"
        },
        {
          "indexed": false,
          "internalType": "address",
          "name": "",
          "type": "address"
        },
        {
          "indexed": false,
          "internalType": "uint256",
          "name": "",
          "type": "uint256"
        }
      ],
      "name": "ParcelDelivered",
      "type": "event"
    },
    {
      "anonymous": false,
      "inputs": [
        {
          "indexed": false,
          "internalType": "address",
          "name": "",
          "type": "address"
        },
        {
          "indexed": false,
          "internalType": "address",
          "name": "",
          "type": "address"
        },
        {
          "indexed": false,
          "internalType": "uint256",
          "name": "",
          "type": "uint256"
        }
      ],
      "name": "ParcelLocationUpdated",
      "type": "event"
    },
    {
      "anonymous": false,
      "inputs": [
        {
          "indexed": false,
          "internalType": "address",
          "name": "",
          "type": "address"
        },
        {
          "indexed": false,
          "internalType": "address",
          "name": "",
          "type": "address"
        },
        {
          "indexed": false,
          "internalType": "uint256",
          "name": "",
          "type": "uint256"
        }
      ],
      "name": "ParcelShippedEvent",
      "type": "event"
    },
    {
      "inputs": [
        {
          "internalType": "address",
          "name": "partner",
          "type": "address"
        },
        {
          "internalType": "int96",
          "name": "salary",
          "type": "int96"
        }
      ],
      "name": "addPartner",
      "outputs": [],
      "stateMutability": "nonpayable",
      "type": "function"
    },
    {
      "inputs": [
        {
          "internalType": "uint256",
          "name": "id",
          "type": "uint256"
        }
      ],
      "name": "banShipper",
      "outputs": [],
      "stateMutability": "nonpayable",
      "type": "function"
    },
    {
      "inputs": [],
      "name": "getMyId",
      "outputs": [
        {
          "internalType": "uint256",
          "name": "",
          "type": "uint256"
        }
      ],
      "stateMutability": "view",
      "type": "function"
    },
    {
      "inputs": [
        {
          "internalType": "uint256",
          "name": "id",
          "type": "uint256"
        }
      ],
      "name": "getMyPartnerById",
      "outputs": [
        {
          "components": [
            {
              "internalType": "address",
              "name": "walletAddress",
              "type": "address"
            },
            {
              "internalType": "address",
              "name": "associatedShipper",
              "type": "address"
            },
            {
              "internalType": "int96",
              "name": "salary",
              "type": "int96"
            },
            {
              "internalType": "bool",
              "name": "active",
              "type": "bool"
            }
          ],
          "internalType": "struct CamoSuperParcel.Partner",
          "name": "",
          "type": "tuple"
        }
      ],
      "stateMutability": "view",
      "type": "function"
    },
    {
      "inputs": [],
      "name": "getMyType",
      "outputs": [
        {
          "internalType": "uint16",
          "name": "",
          "type": "uint16"
        }
      ],
      "stateMutability": "view",
      "type": "function"
    },
    {
      "inputs": [
        {
          "internalType": "uint256",
          "name": "id",
          "type": "uint256"
        }
      ],
      "name": "getShipperById",
      "outputs": [
        {
          "components": [
            {
              "internalType": "address",
              "name": "walletAddress",
              "type": "address"
            },
            {
              "internalType": "uint256[]",
              "name": "myPartners",
              "type": "uint256[]"
            },
            {
              "internalType": "uint256[]",
              "name": "shippedParcels",
              "type": "uint256[]"
            },
            {
              "internalType": "uint256",
              "name": "insuranceDeposit",
              "type": "uint256"
            },
            {
              "internalType": "uint8",
              "name": "status",
              "type": "uint8"
            },
            {
              "internalType": "uint256",
              "name": "rating",
              "type": "uint256"
            },
            {
              "internalType": "uint256",
              "name": "totalRated",
              "type": "uint256"
            }
          ],
          "internalType": "struct CamoSuperParcel.Shipper",
          "name": "",
          "type": "tuple"
        }
      ],
      "stateMutability": "view",
      "type": "function"
    },
    {
      "inputs": [
        {
          "internalType": "uint256",
          "name": "pId",
          "type": "uint256"
        },
        {
          "internalType": "uint256",
          "name": "otp",
          "type": "uint256"
        }
      ],
      "name": "markParcelDelivered",
      "outputs": [],
      "stateMutability": "nonpayable",
      "type": "function"
    },
    {
      "inputs": [],
      "name": "owner",
      "outputs": [
        {
          "internalType": "address",
          "name": "",
          "type": "address"
        }
      ],
      "stateMutability": "view",
      "type": "function"
    },
    {
      "inputs": [
        {
          "internalType": "uint256",
          "name": "pId",
          "type": "uint256"
        },
        {
          "internalType": "uint256",
          "name": "stars",
          "type": "uint256"
        }
      ],
      "name": "rateDeliveredParcel",
      "outputs": [],
      "stateMutability": "nonpayable",
      "type": "function"
    },
    {
      "inputs": [],
      "name": "registerAsShipper",
      "outputs": [],
      "stateMutability": "nonpayable",
      "type": "function"
    },
    {
      "inputs": [
        {
          "internalType": "address",
          "name": "partner_addr",
          "type": "address"
        }
      ],
      "name": "removePartner",
      "outputs": [],
      "stateMutability": "nonpayable",
      "type": "function"
    },
    {
      "inputs": [
        {
          "internalType": "string",
          "name": "itemName",
          "type": "string"
        },
        {
          "internalType": "string",
          "name": "itemDesc",
          "type": "string"
        },
        {
          "internalType": "address",
          "name": "userAddress",
          "type": "address"
        },
        {
          "internalType": "uint256",
          "name": "expectedDelivery",
          "type": "uint256"
        },
        {
          "internalType": "uint256",
          "name": "baseCompensation",
          "type": "uint256"
        },
        {
          "internalType": "uint256",
          "name": "otp",
          "type": "uint256"
        }
      ],
      "name": "shipOrder",
      "outputs": [],
      "stateMutability": "nonpayable",
      "type": "function"
    },
    {
      "inputs": [
        {
          "internalType": "uint256",
          "name": "amount",
          "type": "uint256"
        }
      ],
      "name": "shipperDepositFund",
      "outputs": [],
      "stateMutability": "payable",
      "type": "function"
    },
    {
      "inputs": [],
      "name": "unregisterAsShipper",
      "outputs": [],
      "stateMutability": "nonpayable",
      "type": "function"
    },
    {
      "inputs": [
        {
          "internalType": "uint256",
          "name": "pId",
          "type": "uint256"
        },
        {
          "internalType": "string",
          "name": "location",
          "type": "string"
        }
      ],
      "name": "updateLocation",
      "outputs": [],
      "stateMutability": "nonpayable",
      "type": "function"
    },
    {
      "inputs": [],
      "name": "viewMyParcels",
      "outputs": [
        {
          "components": [
            {
              "internalType": "uint256",
              "name": "id",
              "type": "uint256"
            },
            {
              "internalType": "address",
              "name": "receiver",
              "type": "address"
            },
            {
              "internalType": "address",
              "name": "sender",
              "type": "address"
            },
            {
              "internalType": "string",
              "name": "itemName",
              "type": "string"
            },
            {
              "internalType": "string",
              "name": "itemDesc",
              "type": "string"
            },
            {
              "internalType": "uint256",
              "name": "expectedDelivery",
              "type": "uint256"
            },
            {
              "internalType": "uint256",
              "name": "status",
              "type": "uint256"
            },
            {
              "internalType": "string",
              "name": "currentLocation",
              "type": "string"
            },
            {
              "internalType": "uint256",
              "name": "baseCompensation",
              "type": "uint256"
            },
            {
              "internalType": "uint256",
              "name": "otp",
              "type": "uint256"
            },
            {
              "internalType": "uint256",
              "name": "rating",
              "type": "uint256"
            }
          ],
          "internalType": "struct CamoSuperParcel.Parcel[]",
          "name": "",
          "type": "tuple[]"
        }
      ],
      "stateMutability": "view",
      "type": "function"
    },
    {
      "inputs": [],
      "name": "viewMyPartners",
      "outputs": [
        {
          "components": [
            {
              "internalType": "address",
              "name": "walletAddress",
              "type": "address"
            },
            {
              "internalType": "address",
              "name": "associatedShipper",
              "type": "address"
            },
            {
              "internalType": "int96",
              "name": "salary",
              "type": "int96"
            },
            {
              "internalType": "bool",
              "name": "active",
              "type": "bool"
            }
          ],
          "internalType": "struct CamoSuperParcel.Partner[]",
          "name": "",
          "type": "tuple[]"
        }
      ],
      "stateMutability": "view",
      "type": "function"
    },
    {
      "inputs": [],
      "name": "viewMyShippedParcels",
      "outputs": [
        {
          "components": [
            {
              "internalType": "uint256",
              "name": "id",
              "type": "uint256"
            },
            {
              "internalType": "address",
              "name": "receiver",
              "type": "address"
            },
            {
              "internalType": "address",
              "name": "sender",
              "type": "address"
            },
            {
              "internalType": "string",
              "name": "itemName",
              "type": "string"
            },
            {
              "internalType": "string",
              "name": "itemDesc",
              "type": "string"
            },
            {
              "internalType": "uint256",
              "name": "expectedDelivery",
              "type": "uint256"
            },
            {
              "internalType": "uint256",
              "name": "status",
              "type": "uint256"
            },
            {
              "internalType": "string",
              "name": "currentLocation",
              "type": "string"
            },
            {
              "internalType": "uint256",
              "name": "baseCompensation",
              "type": "uint256"
            },
            {
              "internalType": "uint256",
              "name": "otp",
              "type": "uint256"
            },
            {
              "internalType": "uint256",
              "name": "rating",
              "type": "uint256"
            }
          ],
          "internalType": "struct CamoSuperParcel.Parcel[]",
          "name": "",
          "type": "tuple[]"
        }
      ],
      "stateMutability": "view",
      "type": "function"
    },
    {
      "inputs": [
        {
          "internalType": "uint256",
          "name": "pId",
          "type": "uint256"
        }
      ],
      "name": "viewParcel",
      "outputs": [
        {
          "components": [
            {
              "internalType": "uint256",
              "name": "id",
              "type": "uint256"
            },
            {
              "internalType": "address",
              "name": "receiver",
              "type": "address"
            },
            {
              "internalType": "address",
              "name": "sender",
              "type": "address"
            },
            {
              "internalType": "string",
              "name": "itemName",
              "type": "string"
            },
            {
              "internalType": "string",
              "name": "itemDesc",
              "type": "string"
            },
            {
              "internalType": "uint256",
              "name": "expectedDelivery",
              "type": "uint256"
            },
            {
              "internalType": "uint256",
              "name": "status",
              "type": "uint256"
            },
            {
              "internalType": "string",
              "name": "currentLocation",
              "type": "string"
            },
            {
              "internalType": "uint256",
              "name": "baseCompensation",
              "type": "uint256"
            },
            {
              "internalType": "uint256",
              "name": "otp",
              "type": "uint256"
            },
            {
              "internalType": "uint256",
              "name": "rating",
              "type": "uint256"
            }
          ],
          "internalType": "struct CamoSuperParcel.Parcel",
          "name": "",
          "type": "tuple"
        }
      ],
      "stateMutability": "view",
      "type": "function"
    },
    {
      "inputs": [
        {
          "internalType": "uint256",
          "name": "amount",
          "type": "uint256"
        }
      ],
      "name": "withdrawFundsCollected",
      "outputs": [],
      "stateMutability": "nonpayable",
      "type": "function"
    }
  ],
  "bytecode": "0x60806040526001600255600160035560016004553480156200002057600080fd5b5060405162006084380380620060848339818101604052810190620000469190620001ab565b81600160006101000a81548173ffffffffffffffffffffffffffffffffffffffff021916908373ffffffffffffffffffffffffffffffffffffffff160217905550336000806101000a81548173ffffffffffffffffffffffffffffffffffffffff021916908373ffffffffffffffffffffffffffffffffffffffff16021790555080600b60006101000a8154816bffffffffffffffffffffffff0219169083600b0b6bffffffffffffffffffffffff1602179055505050620001f2565b600080fd5b600073ffffffffffffffffffffffffffffffffffffffff82169050919050565b6000620001358262000108565b9050919050565b620001478162000128565b81146200015357600080fd5b50565b60008151905062000167816200013c565b92915050565b600081600b0b9050919050565b62000185816200016d565b81146200019157600080fd5b50565b600081519050620001a5816200017a565b92915050565b60008060408385031215620001c557620001c462000103565b5b6000620001d58582860162000156565b9250506020620001e88582860162000194565b9150509250929050565b615e8280620002026000396000f3fe60806040526004361061011f5760003560e01c80637c6bff43116100a0578063ad8972bd11610064578063ad8972bd1461039e578063c0031b9b146103c7578063c79148ba146103f2578063cf2ddbd71461041d578063ea3c281a146104465761011f565b80637c6bff43146102b75780637dbac6f1146102e25780638da5cb5b1461031f578063912dc3511461034a578063a2168f82146103615761011f565b806351a81afc116100e757806351a81afc146101e15780635a0d1ab4146101fd57806362ecf67314610226578063650d0162146102515780636e95470c1461028e5761011f565b806327ed00ee14610124578063385a41f11461014f5780633883e36914610166578063406c05ae1461018f5780634ec0c9e9146101b8575b600080fd5b34801561013057600080fd5b5061013961046f565b60405161014691906143e0565b60405180910390f35b34801561015b57600080fd5b50610164610594565b005b34801561017257600080fd5b5061018d6004803603810190610188919061443b565b6108c8565b005b34801561019b57600080fd5b506101b660048036038101906101b1919061461f565b610d35565b005b3480156101c457600080fd5b506101df60048036038101906101da91906146e4565b6111c4565b005b6101fb60048036038101906101f69190614740565b61139c565b005b34801561020957600080fd5b50610224600480360381019061021f919061443b565b6115e1565b005b34801561023257600080fd5b5061023b611ad6565b60405161024891906149d2565b60405180910390f35b34801561025d57600080fd5b5061027860048036038101906102739190614740565b611b7d565b6040516102859190614a80565b60405180910390f35b34801561029a57600080fd5b506102b560048036038101906102b09190614740565b611de1565b005b3480156102c357600080fd5b506102cc611e99565b6040516102d99190614ab8565b60405180910390f35b3480156102ee57600080fd5b5061030960048036038101906103049190614740565b611f9f565b6040516103169190614bd0565b60405180910390f35b34801561032b57600080fd5b506103346123a8565b6040516103419190614c01565b60405180910390f35b34801561035657600080fd5b5061035f6123cc565b005b34801561036d57600080fd5b5061038860048036038101906103839190614740565b61252d565b6040516103959190614d8a565b60405180910390f35b3480156103aa57600080fd5b506103c560048036038101906103c09190614740565b61269b565b005b3480156103d357600080fd5b506103dc6127c4565b6040516103e991906149d2565b60405180910390f35b3480156103fe57600080fd5b506104076130c2565b6040516104149190614eb0565b60405180910390f35b34801561042957600080fd5b50610444600480360381019061043f9190614efe565b613425565b005b34801561045257600080fd5b5061046d60048036038101906104689190614f3e565b613851565b005b600080600560003373ffffffffffffffffffffffffffffffffffffffff1673ffffffffffffffffffffffffffffffffffffffff16815260200190815260200160002054146104fe57600560003373ffffffffffffffffffffffffffffffffffffffff1673ffffffffffffffffffffffffffffffffffffffff168152602001908152602001600020549050610591565b6000600660003373ffffffffffffffffffffffffffffffffffffffff1673ffffffffffffffffffffffffffffffffffffffff168152602001908152602001600020541461058c57600660003373ffffffffffffffffffffffffffffffffffffffff1673ffffffffffffffffffffffffffffffffffffffff168152602001908152602001600020549050610591565b600090505b90565b6000600660003373ffffffffffffffffffffffffffffffffffffffff1673ffffffffffffffffffffffffffffffffffffffff1681526020019081526020016000205414610616576040517f08c379a000000000000000000000000000000000000000000000000000000000815260040161060d90614fc8565b60405180910390fd5b600060076000600560003373ffffffffffffffffffffffffffffffffffffffff1673ffffffffffffffffffffffffffffffffffffffff16815260200190815260200160002054815260200190815260200160002060040160009054906101000a900460ff1660ff169050600160ff1681141580156106985750600360ff168114155b6106d7576040517f08c379a00000000000000000000000000000000000000000000000000000000081526004016106ce90615034565b60405180910390fd5b6107353330600b60009054906101000a9004600b0b600160009054906101000a900473ffffffffffffffffffffffffffffffffffffffff1673ffffffffffffffffffffffffffffffffffffffff16613b3a909392919063ffffffff16565b50606060006040518060e001604052803373ffffffffffffffffffffffffffffffffffffffff16815260200183815260200183815260200160008152602001600160ff1681526020016000815260200160008152509050600354600560003373ffffffffffffffffffffffffffffffffffffffff1673ffffffffffffffffffffffffffffffffffffffff168152602001908152602001600020819055508060076000600354815260200190815260200160002060008201518160000160006101000a81548173ffffffffffffffffffffffffffffffffffffffff021916908373ffffffffffffffffffffffffffffffffffffffff160217905550602082015181600101908051906020019061084b9291906141a2565b5060408201518160020190805190602001906108689291906141a2565b506060820151816003015560808201518160040160006101000a81548160ff021916908360ff16021790555060a0820151816005015560c08201518160060155905050600360008154809291906108be90615083565b9190505550505050565b60086000600660003373ffffffffffffffffffffffffffffffffffffffff1673ffffffffffffffffffffffffffffffffffffffff16815260200190815260200160002054815260200190815260200160002060020160009054906101000a900460ff16610961576040517f82b4290000000000000000000000000000000000000000000000000000000000815260040160405180910390fd5b600a60008381526020019081526020016000206009015481146109b9576040517f08c379a00000000000000000000000000000000000000000000000000000000081526004016109b090615117565b60405180910390fd5b600160ff16600a60008481526020019081526020016000206006015414806109fa5750600260ff16600a600084815260200190815260200160002060060154145b610a39576040517f08c379a0000000000000000000000000000000000000000000000000000000008152600401610a3090615183565b60405180910390fd5b60405180602001604052806000815250600a60008481526020019081526020016000206007019080519060200190610a729291906141ef565b50600360ff16600a6000848152602001908152602001600020600601819055506000610aca600a600085815260200190815260200160002060050154600a600086815260200190815260200160002060080154613ba0565b9050806007600060056000600a600089815260200190815260200160002060020160009054906101000a900473ffffffffffffffffffffffffffffffffffffffff1673ffffffffffffffffffffffffffffffffffffffff1673ffffffffffffffffffffffffffffffffffffffff168152602001908152602001600020548152602001908152602001600020600301541015610b6457600080fd5b60008114610cbf576000600a600085815260200190815260200160002060010160009054906101000a900473ffffffffffffffffffffffffffffffffffffffff1673ffffffffffffffffffffffffffffffffffffffff166108fc839081150290604051600060405180830381858888f19350505050905080610c1b576040517f08c379a0000000000000000000000000000000000000000000000000000000008152600401610c12906151ef565b60405180910390fd5b816007600060056000600a60008a815260200190815260200160002060020160009054906101000a900473ffffffffffffffffffffffffffffffffffffffff1673ffffffffffffffffffffffffffffffffffffffff1673ffffffffffffffffffffffffffffffffffffffff1681526020019081526020016000205481526020019081526020016000206003016000828254610cb6919061520f565b92505081905550505b7f3be6b44b0d8170026cc992b6b6eda259b98e02d16bdfe4b9dd3db223b5420cfd33600a600086815260200190815260200160002060010160009054906101000a900473ffffffffffffffffffffffffffffffffffffffff1685604051610d2893929190615243565b60405180910390a1505050565b600160ff1660076000600560003373ffffffffffffffffffffffffffffffffffffffff1673ffffffffffffffffffffffffffffffffffffffff16815260200190815260200160002054815260200190815260200160002060040160009054906101000a900460ff1660ff1614610dd7576040517f82b4290000000000000000000000000000000000000000000000000000000000815260040160405180910390fd5b428311610e19576040517f08c379a0000000000000000000000000000000000000000000000000000000008152600401610e10906152c6565b60405180910390fd5b8160076000600560003373ffffffffffffffffffffffffffffffffffffffff1673ffffffffffffffffffffffffffffffffffffffff168152602001908152602001600020548152602001908152602001600020600301541015610eb1576040517f08c379a0000000000000000000000000000000000000000000000000000000008152600401610ea890615332565b60405180910390fd5b600060405180610160016040528060025481526020018673ffffffffffffffffffffffffffffffffffffffff1681526020013373ffffffffffffffffffffffffffffffffffffffff168152602001888152602001878152602001858152602001600160ff16815260200160405180602001604052806000815250815260200184815260200183815260200160008152509050600960008673ffffffffffffffffffffffffffffffffffffffff1673ffffffffffffffffffffffffffffffffffffffff168152602001908152602001600020600254908060018154018082558091505060019003906000526020600020016000909190919091505580600a600060025481526020019081526020016000206000820151816000015560208201518160010160006101000a81548173ffffffffffffffffffffffffffffffffffffffff021916908373ffffffffffffffffffffffffffffffffffffffff16021790555060408201518160020160006101000a81548173ffffffffffffffffffffffffffffffffffffffff021916908373ffffffffffffffffffffffffffffffffffffffff16021790555060608201518160030190805190602001906110759291906141ef565b5060808201518160040190805190602001906110929291906141ef565b5060a0820151816005015560c0820151816006015560e08201518160070190805190602001906110c39291906141ef565b506101008201518160080155610120820151816009015561014082015181600a015590505060076000600560003373ffffffffffffffffffffffffffffffffffffffff1673ffffffffffffffffffffffffffffffffffffffff16815260200190815260200160002054815260200190815260200160002060020160025490806001815401808255809150506001900390600052602060002001600090919091909150557f32c1836ded10d94133bd527768a93f4a18336e79a66c70baa8093401c9e3440f338660025460405161119b93929190615243565b60405180910390a1600260008154809291906111b690615083565b919050555050505050505050565b60086000600660003373ffffffffffffffffffffffffffffffffffffffff1673ffffffffffffffffffffffffffffffffffffffff16815260200190815260200160002054815260200190815260200160002060020160009054906101000a900460ff1661125d576040517f82b4290000000000000000000000000000000000000000000000000000000000815260040160405180910390fd5b600160ff16600a600084815260200190815260200160002060060154148061129e5750600260ff16600a600084815260200190815260200160002060060154145b6112dd576040517f08c379a00000000000000000000000000000000000000000000000000000000081526004016112d49061539e565b60405180910390fd5b80600a600084815260200190815260200160002060070190805190602001906113079291906141ef565b50600260ff16600a6000848152602001908152602001600020600601819055507fa3c313d9290f28b0a583dcc5ceabc0a50c3124d1ae9ae1630668c1f404d5a6b633600a600085815260200190815260200160002060010160009054906101000a900473ffffffffffffffffffffffffffffffffffffffff168460405161139093929190615243565b60405180910390a15050565b600160ff1660076000600560003373ffffffffffffffffffffffffffffffffffffffff1673ffffffffffffffffffffffffffffffffffffffff16815260200190815260200160002054815260200190815260200160002060040160009054906101000a900460ff1660ff161461143e576040517f82b4290000000000000000000000000000000000000000000000000000000000815260040160405180910390fd5b60008111611481576040517f08c379a00000000000000000000000000000000000000000000000000000000081526004016114789061540a565b60405180910390fd5b600160009054906101000a900473ffffffffffffffffffffffffffffffffffffffff1673ffffffffffffffffffffffffffffffffffffffff166323b872dd3330846040518463ffffffff1660e01b81526004016114e093929190615243565b6020604051808303816000875af11580156114ff573d6000803e3d6000fd5b505050506040513d601f19601f820116820180604052508101906115239190615456565b508060076000600560003373ffffffffffffffffffffffffffffffffffffffff1673ffffffffffffffffffffffffffffffffffffffff168152602001908152602001600020548152602001908152602001600020600301546115859190615483565b60076000600560003373ffffffffffffffffffffffffffffffffffffffff1673ffffffffffffffffffffffffffffffffffffffff1681526020019081526020016000205481526020019081526020016000206003018190555050565b6000600a600084815260200190815260200160002060405180610160016040529081600082015481526020016001820160009054906101000a900473ffffffffffffffffffffffffffffffffffffffff1673ffffffffffffffffffffffffffffffffffffffff1673ffffffffffffffffffffffffffffffffffffffff1681526020016002820160009054906101000a900473ffffffffffffffffffffffffffffffffffffffff1673ffffffffffffffffffffffffffffffffffffffff1673ffffffffffffffffffffffffffffffffffffffff1681526020016003820180546116c890615508565b80601f01602080910402602001604051908101604052809291908181526020018280546116f490615508565b80156117415780601f1061171657610100808354040283529160200191611741565b820191906000526020600020905b81548152906001019060200180831161172457829003601f168201915b5050505050815260200160048201805461175a90615508565b80601f016020809104026020016040519081016040528092919081815260200182805461178690615508565b80156117d35780601f106117a8576101008083540402835291602001916117d3565b820191906000526020600020905b8154815290600101906020018083116117b657829003601f168201915b50505050508152602001600582015481526020016006820154815260200160078201805461180090615508565b80601f016020809104026020016040519081016040528092919081815260200182805461182c90615508565b80156118795780601f1061184e57610100808354040283529160200191611879565b820191906000526020600020905b81548152906001019060200180831161185c57829003601f168201915b505050505081526020016008820154815260200160098201548152602001600a8201548152505090503373ffffffffffffffffffffffffffffffffffffffff16816020015173ffffffffffffffffffffffffffffffffffffffff1614611914576040517f08c379a000000000000000000000000000000000000000000000000000000000815260040161190b90615585565b60405180910390fd5b60008161014001511461195c576040517f08c379a0000000000000000000000000000000000000000000000000000000008152600401611953906155f1565b60405180910390fd5b600360ff168160c00151146119a6576040517f08c379a000000000000000000000000000000000000000000000000000000000815260040161199d9061565d565b60405180910390fd5b600582111580156119b75750600082115b6119f6576040517f08c379a00000000000000000000000000000000000000000000000000000000081526004016119ed906156c9565b60405180910390fd5b81600a6000858152602001908152602001600020600a018190555060006007600060056000856040015173ffffffffffffffffffffffffffffffffffffffff1673ffffffffffffffffffffffffffffffffffffffff1681526020019081526020016000205481526020019081526020016000209050600060018260060154611a7e9190615483565b670de0b6b3a764000085611a9291906156e9565b611a9c9190615772565b8260050154611aab9190615483565b905060018260060154611abe9190615483565b82600601819055508082600501819055505050505050565b6060600160ff1660076000600560003373ffffffffffffffffffffffffffffffffffffffff1673ffffffffffffffffffffffffffffffffffffffff16815260200190815260200160002054815260200190815260200160002060040160009054906101000a900460ff1660ff1614611b7a576040517f82b4290000000000000000000000000000000000000000000000000000000000815260040160405180910390fd5b90565b611b85614275565b600160ff1660076000600560003373ffffffffffffffffffffffffffffffffffffffff1673ffffffffffffffffffffffffffffffffffffffff16815260200190815260200160002054815260200190815260200160002060040160009054906101000a900460ff1660ff1614611c27576040517f82b4290000000000000000000000000000000000000000000000000000000000815260040160405180910390fd5b60008214158015611c9957503373ffffffffffffffffffffffffffffffffffffffff166008600084815260200190815260200160002060010160009054906101000a900473ffffffffffffffffffffffffffffffffffffffff1673ffffffffffffffffffffffffffffffffffffffff16145b611cd8576040517f08c379a0000000000000000000000000000000000000000000000000000000008152600401611ccf906157ef565b60405180910390fd5b600860008381526020019081526020016000206040518060800160405290816000820160009054906101000a900473ffffffffffffffffffffffffffffffffffffffff1673ffffffffffffffffffffffffffffffffffffffff1673ffffffffffffffffffffffffffffffffffffffff1681526020016001820160009054906101000a900473ffffffffffffffffffffffffffffffffffffffff1673ffffffffffffffffffffffffffffffffffffffff1673ffffffffffffffffffffffffffffffffffffffff1681526020016001820160149054906101000a9004600b0b600b0b600b0b81526020016002820160009054906101000a900460ff1615151515815250509050919050565b60008054906101000a900473ffffffffffffffffffffffffffffffffffffffff1673ffffffffffffffffffffffffffffffffffffffff163373ffffffffffffffffffffffffffffffffffffffff1614611e66576040517f82b4290000000000000000000000000000000000000000000000000000000000815260040160405180910390fd5b60036007600083815260200190815260200160002060040160006101000a81548160ff021916908360ff16021790555050565b600080600560003373ffffffffffffffffffffffffffffffffffffffff1673ffffffffffffffffffffffffffffffffffffffff1681526020019081526020016000205414611eea5760019050611f9c565b6000600660003373ffffffffffffffffffffffffffffffffffffffff1673ffffffffffffffffffffffffffffffffffffffff1681526020019081526020016000205414611f3a5760029050611f9c565b60008054906101000a900473ffffffffffffffffffffffffffffffffffffffff1673ffffffffffffffffffffffffffffffffffffffff163373ffffffffffffffffffffffffffffffffffffffff1603611f97576103e79050611f9c565b600390505b90565b611fa76142ce565b600160ff1660076000600560003373ffffffffffffffffffffffffffffffffffffffff1673ffffffffffffffffffffffffffffffffffffffff16815260200190815260200160002054815260200190815260200160002060040160009054906101000a900460ff1660ff1614612049576040517f82b4290000000000000000000000000000000000000000000000000000000000815260040160405180910390fd5b3373ffffffffffffffffffffffffffffffffffffffff16600a600084815260200190815260200160002060020160009054906101000a900473ffffffffffffffffffffffffffffffffffffffff1673ffffffffffffffffffffffffffffffffffffffff16146120e4576040517f82b4290000000000000000000000000000000000000000000000000000000000815260040160405180910390fd5b600a600083815260200190815260200160002060405180610160016040529081600082015481526020016001820160009054906101000a900473ffffffffffffffffffffffffffffffffffffffff1673ffffffffffffffffffffffffffffffffffffffff1673ffffffffffffffffffffffffffffffffffffffff1681526020016002820160009054906101000a900473ffffffffffffffffffffffffffffffffffffffff1673ffffffffffffffffffffffffffffffffffffffff1673ffffffffffffffffffffffffffffffffffffffff1681526020016003820180546121c990615508565b80601f01602080910402602001604051908101604052809291908181526020018280546121f590615508565b80156122425780601f1061221757610100808354040283529160200191612242565b820191906000526020600020905b81548152906001019060200180831161222557829003601f168201915b5050505050815260200160048201805461225b90615508565b80601f016020809104026020016040519081016040528092919081815260200182805461228790615508565b80156122d45780601f106122a9576101008083540402835291602001916122d4565b820191906000526020600020905b8154815290600101906020018083116122b757829003601f168201915b50505050508152602001600582015481526020016006820154815260200160078201805461230190615508565b80601f016020809104026020016040519081016040528092919081815260200182805461232d90615508565b801561237a5780601f1061234f5761010080835404028352916020019161237a565b820191906000526020600020905b81548152906001019060200180831161235d57829003601f168201915b505050505081526020016008820154815260200160098201548152602001600a820154815250509050919050565b60008054906101000a900473ffffffffffffffffffffffffffffffffffffffff1681565b600160ff1660076000600560003373ffffffffffffffffffffffffffffffffffffffff1673ffffffffffffffffffffffffffffffffffffffff16815260200190815260200160002054815260200190815260200160002060040160009054906101000a900460ff1660ff161461246e576040517f82b4290000000000000000000000000000000000000000000000000000000000815260040160405180910390fd5b6124bb3330600160009054906101000a900473ffffffffffffffffffffffffffffffffffffffff1673ffffffffffffffffffffffffffffffffffffffff16613be69092919063ffffffff16565b50600260076000600560003373ffffffffffffffffffffffffffffffffffffffff1673ffffffffffffffffffffffffffffffffffffffff16815260200190815260200160002054815260200190815260200160002060040160006101000a81548160ff021916908360ff160217905550565b612535614354565b600760008381526020019081526020016000206040518060e00160405290816000820160009054906101000a900473ffffffffffffffffffffffffffffffffffffffff1673ffffffffffffffffffffffffffffffffffffffff1673ffffffffffffffffffffffffffffffffffffffff168152602001600182018054806020026020016040519081016040528092919081815260200182805480156125f857602002820191906000526020600020905b8154815260200190600101908083116125e4575b505050505081526020016002820180548060200260200160405190810160405280929190818152602001828054801561265057602002820191906000526020600020905b81548152602001906001019080831161263c575b50505050508152602001600382015481526020016004820160009054906101000a900460ff1660ff1660ff168152602001600582015481526020016006820154815250509050919050565b60008054906101000a900473ffffffffffffffffffffffffffffffffffffffff1673ffffffffffffffffffffffffffffffffffffffff163373ffffffffffffffffffffffffffffffffffffffff1614612720576040517f82b4290000000000000000000000000000000000000000000000000000000000815260040160405180910390fd5b600160009054906101000a900473ffffffffffffffffffffffffffffffffffffffff1673ffffffffffffffffffffffffffffffffffffffff1663a9059cbb33836040518363ffffffff1660e01b815260040161277d92919061580f565b6020604051808303816000875af115801561279c573d6000803e3d6000fd5b505050506040513d601f19601f820116820180604052508101906127c09190615456565b5050565b60606000600560003373ffffffffffffffffffffffffffffffffffffffff1673ffffffffffffffffffffffffffffffffffffffff1681526020019081526020016000205414612c8957600060076000600560003373ffffffffffffffffffffffffffffffffffffffff1673ffffffffffffffffffffffffffffffffffffffff1681526020019081526020016000205481526020019081526020016000206002018054905067ffffffffffffffff81111561288157612880614496565b5b6040519080825280602002602001820160405280156128ba57816020015b6128a76142ce565b81526020019060019003908161289f5790505b50905060005b60076000600560003373ffffffffffffffffffffffffffffffffffffffff1673ffffffffffffffffffffffffffffffffffffffff16815260200190815260200160002054815260200190815260200160002060020180549050811015612c7f57600a600060076000600560003373ffffffffffffffffffffffffffffffffffffffff1673ffffffffffffffffffffffffffffffffffffffff168152602001908152602001600020548152602001908152602001600020600201838154811061298b5761298a615838565b5b9060005260206000200154815260200190815260200160002060405180610160016040529081600082015481526020016001820160009054906101000a900473ffffffffffffffffffffffffffffffffffffffff1673ffffffffffffffffffffffffffffffffffffffff1673ffffffffffffffffffffffffffffffffffffffff1681526020016002820160009054906101000a900473ffffffffffffffffffffffffffffffffffffffff1673ffffffffffffffffffffffffffffffffffffffff1673ffffffffffffffffffffffffffffffffffffffff168152602001600382018054612a7690615508565b80601f0160208091040260200160405190810160405280929190818152602001828054612aa290615508565b8015612aef5780601f10612ac457610100808354040283529160200191612aef565b820191906000526020600020905b815481529060010190602001808311612ad257829003601f168201915b50505050508152602001600482018054612b0890615508565b80601f0160208091040260200160405190810160405280929190818152602001828054612b3490615508565b8015612b815780601f10612b5657610100808354040283529160200191612b81565b820191906000526020600020905b815481529060010190602001808311612b6457829003601f168201915b505050505081526020016005820154815260200160068201548152602001600782018054612bae90615508565b80601f0160208091040260200160405190810160405280929190818152602001828054612bda90615508565b8015612c275780601f10612bfc57610100808354040283529160200191612c27565b820191906000526020600020905b815481529060010190602001808311612c0a57829003601f168201915b505050505081526020016008820154815260200160098201548152602001600a82015481525050828281518110612c6157612c60615838565b5b60200260200101819052508080612c7790615083565b9150506128c0565b50809150506130bf565b6000600960003373ffffffffffffffffffffffffffffffffffffffff1673ffffffffffffffffffffffffffffffffffffffff1681526020019081526020016000208054905067ffffffffffffffff811115612ce757612ce6614496565b5b604051908082528060200260200182016040528015612d2057816020015b612d0d6142ce565b815260200190600190039081612d055790505b50905060005b600960003373ffffffffffffffffffffffffffffffffffffffff1673ffffffffffffffffffffffffffffffffffffffff168152602001908152602001600020805490508110156130b957600a6000600960003373ffffffffffffffffffffffffffffffffffffffff1673ffffffffffffffffffffffffffffffffffffffff1681526020019081526020016000208381548110612dc557612dc4615838565b5b9060005260206000200154815260200190815260200160002060405180610160016040529081600082015481526020016001820160009054906101000a900473ffffffffffffffffffffffffffffffffffffffff1673ffffffffffffffffffffffffffffffffffffffff1673ffffffffffffffffffffffffffffffffffffffff1681526020016002820160009054906101000a900473ffffffffffffffffffffffffffffffffffffffff1673ffffffffffffffffffffffffffffffffffffffff1673ffffffffffffffffffffffffffffffffffffffff168152602001600382018054612eb090615508565b80601f0160208091040260200160405190810160405280929190818152602001828054612edc90615508565b8015612f295780601f10612efe57610100808354040283529160200191612f29565b820191906000526020600020905b815481529060010190602001808311612f0c57829003601f168201915b50505050508152602001600482018054612f4290615508565b80601f0160208091040260200160405190810160405280929190818152602001828054612f6e90615508565b8015612fbb5780601f10612f9057610100808354040283529160200191612fbb565b820191906000526020600020905b815481529060010190602001808311612f9e57829003601f168201915b505050505081526020016005820154815260200160068201548152602001600782018054612fe890615508565b80601f016020809104026020016040519081016040528092919081815260200182805461301490615508565b80156130615780601f1061303657610100808354040283529160200191613061565b820191906000526020600020905b81548152906001019060200180831161304457829003601f168201915b505050505081526020016008820154815260200160098201548152602001600a8201548152505082828151811061309b5761309a615838565b5b602002602001018190525080806130b190615083565b915050612d26565b50809150505b90565b6060600160ff1660076000600560003373ffffffffffffffffffffffffffffffffffffffff1673ffffffffffffffffffffffffffffffffffffffff16815260200190815260200160002054815260200190815260200160002060040160009054906101000a900460ff1660ff1614613166576040517f82b4290000000000000000000000000000000000000000000000000000000000815260040160405180910390fd5b600060076000600560003373ffffffffffffffffffffffffffffffffffffffff1673ffffffffffffffffffffffffffffffffffffffff1681526020019081526020016000205481526020019081526020016000206001018054905067ffffffffffffffff8111156131da576131d9614496565b5b60405190808252806020026020018201604052801561321357816020015b613200614275565b8152602001906001900390816131f85790505b50905060005b60076000600560003373ffffffffffffffffffffffffffffffffffffffff1673ffffffffffffffffffffffffffffffffffffffff1681526020019081526020016000205481526020019081526020016000206001018054905081101561341d576008600060076000600560003373ffffffffffffffffffffffffffffffffffffffff1673ffffffffffffffffffffffffffffffffffffffff16815260200190815260200160002054815260200190815260200160002060010183815481106132e4576132e3615838565b5b906000526020600020015481526020019081526020016000206040518060800160405290816000820160009054906101000a900473ffffffffffffffffffffffffffffffffffffffff1673ffffffffffffffffffffffffffffffffffffffff1673ffffffffffffffffffffffffffffffffffffffff1681526020016001820160009054906101000a900473ffffffffffffffffffffffffffffffffffffffff1673ffffffffffffffffffffffffffffffffffffffff1673ffffffffffffffffffffffffffffffffffffffff1681526020016001820160149054906101000a9004600b0b600b0b600b0b81526020016002820160009054906101000a900460ff1615151515815250508282815181106133ff576133fe615838565b5b6020026020010181905250808061341590615083565b915050613219565b508091505090565b600160ff1660076000600560003373ffffffffffffffffffffffffffffffffffffffff1673ffffffffffffffffffffffffffffffffffffffff16815260200190815260200160002054815260200190815260200160002060040160009054906101000a900460ff1660ff16146134c7576040517f82b4290000000000000000000000000000000000000000000000000000000000815260040160405180910390fd5b6000600560008473ffffffffffffffffffffffffffffffffffffffff1673ffffffffffffffffffffffffffffffffffffffff1681526020019081526020016000205414613549576040517f08c379a0000000000000000000000000000000000000000000000000000000008152600401613540906158b3565b60405180910390fd5b6000600660008473ffffffffffffffffffffffffffffffffffffffff1673ffffffffffffffffffffffffffffffffffffffff16815260200190815260200160002054146135cb576040517f08c379a00000000000000000000000000000000000000000000000000000000081526004016135c29061591f565b60405180910390fd5b61361a338383600160009054906101000a900473ffffffffffffffffffffffffffffffffffffffff1673ffffffffffffffffffffffffffffffffffffffff16613b3a909392919063ffffffff16565b50600060405180608001604052808473ffffffffffffffffffffffffffffffffffffffff1681526020013373ffffffffffffffffffffffffffffffffffffffff16815260200183600b0b8152602001600115158152509050600454600660008573ffffffffffffffffffffffffffffffffffffffff1673ffffffffffffffffffffffffffffffffffffffff168152602001908152602001600020819055508060086000600454815260200190815260200160002060008201518160000160006101000a81548173ffffffffffffffffffffffffffffffffffffffff021916908373ffffffffffffffffffffffffffffffffffffffff16021790555060208201518160010160006101000a81548173ffffffffffffffffffffffffffffffffffffffff021916908373ffffffffffffffffffffffffffffffffffffffff16021790555060408201518160010160146101000a8154816bffffffffffffffffffffffff0219169083600b0b6bffffffffffffffffffffffff16021790555060608201518160020160006101000a81548160ff02191690831515021790555090505060076000600560003373ffffffffffffffffffffffffffffffffffffffff1673ffffffffffffffffffffffffffffffffffffffff168152602001908152602001600020548152602001908152602001600020600101600454908060018154018082558091505060019003906000526020600020016000909190919091505560016004546138469190615483565b600481905550505050565b600160ff1660076000600560003373ffffffffffffffffffffffffffffffffffffffff1673ffffffffffffffffffffffffffffffffffffffff16815260200190815260200160002054815260200190815260200160002060040160009054906101000a900460ff1660ff16146138f3576040517f82b4290000000000000000000000000000000000000000000000000000000000815260040160405180910390fd5b6000600660008373ffffffffffffffffffffffffffffffffffffffff1673ffffffffffffffffffffffffffffffffffffffff16815260200190815260200160002054905060006004540361397c576040517f08c379a00000000000000000000000000000000000000000000000000000000081526004016139739061598b565b60405180910390fd5b3373ffffffffffffffffffffffffffffffffffffffff166008600083815260200190815260200160002060010160009054906101000a900473ffffffffffffffffffffffffffffffffffffffff1673ffffffffffffffffffffffffffffffffffffffff1614613a20576040517f08c379a0000000000000000000000000000000000000000000000000000000008152600401613a17906159f7565b60405180910390fd5b6008600082815260200190815260200160002060020160009054906101000a900460ff16613a83576040517f08c379a0000000000000000000000000000000000000000000000000000000008152600401613a7a90615a63565b60405180910390fd5b613b06336008600084815260200190815260200160002060000160009054906101000a900473ffffffffffffffffffffffffffffffffffffffff16600160009054906101000a900473ffffffffffffffffffffffffffffffffffffffff1673ffffffffffffffffffffffffffffffffffffffff16613be69092919063ffffffff16565b5060006008600083815260200190815260200160002060020160006101000a81548160ff0219169083151502179055505050565b6000613b9685858585600067ffffffffffffffff811115613b5e57613b5d614496565b5b6040519080825280601f01601f191660200182016040528015613b905781602001600182028036833780820191505090505b50613c4a565b9050949350505050565b6000428310613bb25760009050613be0565b6000620151808442613bc4919061520f565b613bce9190615772565b90508281613bdc91906156e9565b9150505b92915050565b6000613c41848484600067ffffffffffffffff811115613c0957613c08614496565b5b6040519080825280601f01601f191660200182016040528015613c3b5781602001600182028036833780820191505090505b50613db4565b90509392505050565b6000806000613c5888613f1b565b915091508173ffffffffffffffffffffffffffffffffffffffff166339255d5b828373ffffffffffffffffffffffffffffffffffffffff166394229ecb8c8c8c8c600067ffffffffffffffff811115613cb457613cb3614496565b5b6040519080825280601f01601f191660200182016040528015613ce65781602001600182028036833780820191505090505b50604051602401613cfb959493929190615b46565b604051602081830303815290604052915060e01b6020820180517bffffffffffffffffffffffffffffffffffffffffffffffffffffffff8381831617835250505050876040518463ffffffff1660e01b8152600401613d5c93929190615bc1565b6000604051808303816000875af1158015613d7b573d6000803e3d6000fd5b505050506040513d6000823e3d601f19601f82011682018060405250810190613da49190615ca7565b5060019250505095945050505050565b6000806000613dc287613f1b565b915091508173ffffffffffffffffffffffffffffffffffffffff166339255d5b828373ffffffffffffffffffffffffffffffffffffffff1663b4b333c68b8b8b600067ffffffffffffffff811115613e1d57613e1c614496565b5b6040519080825280601f01601f191660200182016040528015613e4f5781602001600182028036833780820191505090505b50604051602401613e639493929190615cf0565b604051602081830303815290604052915060e01b6020820180517bffffffffffffffffffffffffffffffffffffffffffffffffffffffff8381831617835250505050876040518463ffffffff1660e01b8152600401613ec493929190615bc1565b6000604051808303816000875af1158015613ee3573d6000803e3d6000fd5b505050506040513d6000823e3d601f19601f82011682018060405250810190613f0c9190615ca7565b50600192505050949350505050565b6000807f65599bf746e17a00ea62e3610586992d88101b78eec3cf380706621fb97ea8375491507fb969d79d88acd02d04ed7ee7d43b949e7daf093d363abcfbbc43dfdfd1ce969a549050600073ffffffffffffffffffffffffffffffffffffffff168173ffffffffffffffffffffffffffffffffffffffff160361412357600073ffffffffffffffffffffffffffffffffffffffff168273ffffffffffffffffffffffffffffffffffffffff1603614040578273ffffffffffffffffffffffffffffffffffffffff166320bc44256040518163ffffffff1660e01b8152600401602060405180830381865afa158015614019573d6000803e3d6000fd5b505050506040513d601f19601f8201168201806040525081019061403d9190615d51565b91505b8173ffffffffffffffffffffffffffffffffffffffff1663b6d200de7fa9214cc96615e0085d3bb077758db69497dc2dce3b2b1e97bc93c3d18d83efd36040518263ffffffff1660e01b81526004016140999190615d97565b602060405180830381865afa1580156140b6573d6000803e3d6000fd5b505050506040513d601f19601f820116820180604052508101906140da9190615df0565b9050817f65599bf746e17a00ea62e3610586992d88101b78eec3cf380706621fb97ea83755807fb969d79d88acd02d04ed7ee7d43b949e7daf093d363abcfbbc43dfdfd1ce969a555b600073ffffffffffffffffffffffffffffffffffffffff168273ffffffffffffffffffffffffffffffffffffffff16036141605761415f615e1d565b5b600073ffffffffffffffffffffffffffffffffffffffff168173ffffffffffffffffffffffffffffffffffffffff160361419d5761419c615e1d565b5b915091565b8280548282559060005260206000209081019282156141de579160200282015b828111156141dd5782518255916020019190600101906141c2565b5b5090506141eb91906143aa565b5090565b8280546141fb90615508565b90600052602060002090601f01602090048101928261421d5760008555614264565b82601f1061423657805160ff1916838001178555614264565b82800160010185558215614264579182015b82811115614263578251825591602001919060010190614248565b5b50905061427191906143aa565b5090565b6040518060800160405280600073ffffffffffffffffffffffffffffffffffffffff168152602001600073ffffffffffffffffffffffffffffffffffffffff1681526020016000600b0b81526020016000151581525090565b60405180610160016040528060008152602001600073ffffffffffffffffffffffffffffffffffffffff168152602001600073ffffffffffffffffffffffffffffffffffffffff16815260200160608152602001606081526020016000815260200160008152602001606081526020016000815260200160008152602001600081525090565b6040518060e00160405280600073ffffffffffffffffffffffffffffffffffffffff168152602001606081526020016060815260200160008152602001600060ff16815260200160008152602001600081525090565b5b808211156143c35760008160009055506001016143ab565b5090565b6000819050919050565b6143da816143c7565b82525050565b60006020820190506143f560008301846143d1565b92915050565b6000604051905090565b600080fd5b600080fd5b614418816143c7565b811461442357600080fd5b50565b6000813590506144358161440f565b92915050565b6000806040838503121561445257614451614405565b5b600061446085828601614426565b925050602061447185828601614426565b9150509250929050565b600080fd5b600080fd5b6000601f19601f8301169050919050565b7f4e487b7100000000000000000000000000000000000000000000000000000000600052604160045260246000fd5b6144ce82614485565b810181811067ffffffffffffffff821117156144ed576144ec614496565b5b80604052505050565b60006145006143fb565b905061450c82826144c5565b919050565b600067ffffffffffffffff82111561452c5761452b614496565b5b61453582614485565b9050602081019050919050565b82818337600083830152505050565b600061456461455f84614511565b6144f6565b9050828152602081018484840111156145805761457f614480565b5b61458b848285614542565b509392505050565b600082601f8301126145a8576145a761447b565b5b81356145b8848260208601614551565b91505092915050565b600073ffffffffffffffffffffffffffffffffffffffff82169050919050565b60006145ec826145c1565b9050919050565b6145fc816145e1565b811461460757600080fd5b50565b600081359050614619816145f3565b92915050565b60008060008060008060c0878903121561463c5761463b614405565b5b600087013567ffffffffffffffff81111561465a5761465961440a565b5b61466689828a01614593565b965050602087013567ffffffffffffffff8111156146875761468661440a565b5b61469389828a01614593565b95505060406146a489828a0161460a565b94505060606146b589828a01614426565b93505060806146c689828a01614426565b92505060a06146d789828a01614426565b9150509295509295509295565b600080604083850312156146fb576146fa614405565b5b600061470985828601614426565b925050602083013567ffffffffffffffff81111561472a5761472961440a565b5b61473685828601614593565b9150509250929050565b60006020828403121561475657614755614405565b5b600061476484828501614426565b91505092915050565b600081519050919050565b600082825260208201905092915050565b6000819050602082019050919050565b6147a2816143c7565b82525050565b6147b1816145e1565b82525050565b600081519050919050565b600082825260208201905092915050565b60005b838110156147f15780820151818401526020810190506147d6565b83811115614800576000848401525b50505050565b6000614811826147b7565b61481b81856147c2565b935061482b8185602086016147d3565b61483481614485565b840191505092915050565b6000610160830160008301516148586000860182614799565b50602083015161486b60208601826147a8565b50604083015161487e60408601826147a8565b50606083015184820360608601526148968282614806565b915050608083015184820360808601526148b08282614806565b91505060a08301516148c560a0860182614799565b5060c08301516148d860c0860182614799565b5060e083015184820360e08601526148f08282614806565b915050610100830151614907610100860182614799565b5061012083015161491c610120860182614799565b50610140830151614931610140860182614799565b508091505092915050565b6000614948838361483f565b905092915050565b6000602082019050919050565b60006149688261476d565b6149728185614778565b93508360208202850161498485614789565b8060005b858110156149c057848403895281516149a1858261493c565b94506149ac83614950565b925060208a01995050600181019050614988565b50829750879550505050505092915050565b600060208201905081810360008301526149ec818461495d565b905092915050565b600081600b0b9050919050565b614a0a816149f4565b82525050565b60008115159050919050565b614a2581614a10565b82525050565b608082016000820151614a4160008501826147a8565b506020820151614a5460208501826147a8565b506040820151614a676040850182614a01565b506060820151614a7a6060850182614a1c565b50505050565b6000608082019050614a956000830184614a2b565b92915050565b600061ffff82169050919050565b614ab281614a9b565b82525050565b6000602082019050614acd6000830184614aa9565b92915050565b600061016083016000830151614aec6000860182614799565b506020830151614aff60208601826147a8565b506040830151614b1260408601826147a8565b5060608301518482036060860152614b2a8282614806565b91505060808301518482036080860152614b448282614806565b91505060a0830151614b5960a0860182614799565b5060c0830151614b6c60c0860182614799565b5060e083015184820360e0860152614b848282614806565b915050610100830151614b9b610100860182614799565b50610120830151614bb0610120860182614799565b50610140830151614bc5610140860182614799565b508091505092915050565b60006020820190508181036000830152614bea8184614ad3565b905092915050565b614bfb816145e1565b82525050565b6000602082019050614c166000830184614bf2565b92915050565b600081519050919050565b600082825260208201905092915050565b6000819050602082019050919050565b6000614c548383614799565b60208301905092915050565b6000602082019050919050565b6000614c7882614c1c565b614c828185614c27565b9350614c8d83614c38565b8060005b83811015614cbe578151614ca58882614c48565b9750614cb083614c60565b925050600181019050614c91565b5085935050505092915050565b600060ff82169050919050565b614ce181614ccb565b82525050565b600060e083016000830151614cff60008601826147a8565b5060208301518482036020860152614d178282614c6d565b91505060408301518482036040860152614d318282614c6d565b9150506060830151614d466060860182614799565b506080830151614d596080860182614cd8565b5060a0830151614d6c60a0860182614799565b5060c0830151614d7f60c0860182614799565b508091505092915050565b60006020820190508181036000830152614da48184614ce7565b905092915050565b600081519050919050565b600082825260208201905092915050565b6000819050602082019050919050565b608082016000820151614dee60008501826147a8565b506020820151614e0160208501826147a8565b506040820151614e146040850182614a01565b506060820151614e276060850182614a1c565b50505050565b6000614e398383614dd8565b60808301905092915050565b6000602082019050919050565b6000614e5d82614dac565b614e678185614db7565b9350614e7283614dc8565b8060005b83811015614ea3578151614e8a8882614e2d565b9750614e9583614e45565b925050600181019050614e76565b5085935050505092915050565b60006020820190508181036000830152614eca8184614e52565b905092915050565b614edb816149f4565b8114614ee657600080fd5b50565b600081359050614ef881614ed2565b92915050565b60008060408385031215614f1557614f14614405565b5b6000614f238582860161460a565b9250506020614f3485828601614ee9565b9150509250929050565b600060208284031215614f5457614f53614405565b5b6000614f628482850161460a565b91505092915050565b600082825260208201905092915050565b7f3400000000000000000000000000000000000000000000000000000000000000600082015250565b6000614fb2600183614f6b565b9150614fbd82614f7c565b602082019050919050565b60006020820190508181036000830152614fe181614fa5565b9050919050565b7f3500000000000000000000000000000000000000000000000000000000000000600082015250565b600061501e600183614f6b565b915061502982614fe8565b602082019050919050565b6000602082019050818103600083015261504d81615011565b9050919050565b7f4e487b7100000000000000000000000000000000000000000000000000000000600052601160045260246000fd5b600061508e826143c7565b91507fffffffffffffffffffffffffffffffffffffffffffffffffffffffffffffffff82036150c0576150bf615054565b5b600182019050919050565b7f3131000000000000000000000000000000000000000000000000000000000000600082015250565b6000615101600283614f6b565b915061510c826150cb565b602082019050919050565b60006020820190508181036000830152615130816150f4565b9050919050565b7f3132000000000000000000000000000000000000000000000000000000000000600082015250565b600061516d600283614f6b565b915061517882615137565b602082019050919050565b6000602082019050818103600083015261519c81615160565b9050919050565b7f3134000000000000000000000000000000000000000000000000000000000000600082015250565b60006151d9600283614f6b565b91506151e4826151a3565b602082019050919050565b60006020820190508181036000830152615208816151cc565b9050919050565b600061521a826143c7565b9150615225836143c7565b92508282101561523857615237615054565b5b828203905092915050565b60006060820190506152586000830186614bf2565b6152656020830185614bf2565b61527260408301846143d1565b949350505050565b7f496e76616c696420657870656374656444656c69766572790000000000000000600082015250565b60006152b0601883614f6b565b91506152bb8261527a565b602082019050919050565b600060208201905081810360008301526152df816152a3565b9050919050565b7f3230000000000000000000000000000000000000000000000000000000000000600082015250565b600061531c600283614f6b565b9150615327826152e6565b602082019050919050565b6000602082019050818103600083015261534b8161530f565b9050919050565b7f3130000000000000000000000000000000000000000000000000000000000000600082015250565b6000615388600283614f6b565b915061539382615352565b602082019050919050565b600060208201905081810360008301526153b78161537b565b9050919050565b7f3231000000000000000000000000000000000000000000000000000000000000600082015250565b60006153f4600283614f6b565b91506153ff826153be565b602082019050919050565b60006020820190508181036000830152615423816153e7565b9050919050565b61543381614a10565b811461543e57600080fd5b50565b6000815190506154508161542a565b92915050565b60006020828403121561546c5761546b614405565b5b600061547a84828501615441565b91505092915050565b600061548e826143c7565b9150615499836143c7565b9250827fffffffffffffffffffffffffffffffffffffffffffffffffffffffffffffffff038211156154ce576154cd615054565b5b828201905092915050565b7f4e487b7100000000000000000000000000000000000000000000000000000000600052602260045260246000fd5b6000600282049050600182168061552057607f821691505b602082108103615533576155326154d9565b5b50919050565b7f3135000000000000000000000000000000000000000000000000000000000000600082015250565b600061556f600283614f6b565b915061557a82615539565b602082019050919050565b6000602082019050818103600083015261559e81615562565b9050919050565b7f3136000000000000000000000000000000000000000000000000000000000000600082015250565b60006155db600283614f6b565b91506155e6826155a5565b602082019050919050565b6000602082019050818103600083015261560a816155ce565b9050919050565b7f3137000000000000000000000000000000000000000000000000000000000000600082015250565b6000615647600283614f6b565b915061565282615611565b602082019050919050565b600060208201905081810360008301526156768161563a565b9050919050565b7f3138000000000000000000000000000000000000000000000000000000000000600082015250565b60006156b3600283614f6b565b91506156be8261567d565b602082019050919050565b600060208201905081810360008301526156e2816156a6565b9050919050565b60006156f4826143c7565b91506156ff836143c7565b9250817fffffffffffffffffffffffffffffffffffffffffffffffffffffffffffffffff048311821515161561573857615737615054565b5b828202905092915050565b7f4e487b7100000000000000000000000000000000000000000000000000000000600052601260045260246000fd5b600061577d826143c7565b9150615788836143c7565b92508261579857615797615743565b5b828204905092915050565b7f3139000000000000000000000000000000000000000000000000000000000000600082015250565b60006157d9600283614f6b565b91506157e4826157a3565b602082019050919050565b60006020820190508181036000830152615808816157cc565b9050919050565b60006040820190506158246000830185614bf2565b61583160208301846143d1565b9392505050565b7f4e487b7100000000000000000000000000000000000000000000000000000000600052603260045260246000fd5b7f3600000000000000000000000000000000000000000000000000000000000000600082015250565b600061589d600183614f6b565b91506158a882615867565b602082019050919050565b600060208201905081810360008301526158cc81615890565b9050919050565b7f3700000000000000000000000000000000000000000000000000000000000000600082015250565b6000615909600183614f6b565b9150615914826158d3565b602082019050919050565b60006020820190508181036000830152615938816158fc565b9050919050565b7f3236000000000000000000000000000000000000000000000000000000000000600082015250565b6000615975600283614f6b565b91506159808261593f565b602082019050919050565b600060208201905081810360008301526159a481615968565b9050919050565b7f3800000000000000000000000000000000000000000000000000000000000000600082015250565b60006159e1600183614f6b565b91506159ec826159ab565b602082019050919050565b60006020820190508181036000830152615a10816159d4565b9050919050565b7f3900000000000000000000000000000000000000000000000000000000000000600082015250565b6000615a4d600183614f6b565b9150615a5882615a17565b602082019050919050565b60006020820190508181036000830152615a7c81615a40565b9050919050565b6000819050919050565b6000615aa8615aa3615a9e846145c1565b615a83565b6145c1565b9050919050565b6000615aba82615a8d565b9050919050565b6000615acc82615aaf565b9050919050565b615adc81615ac1565b82525050565b615aeb816149f4565b82525050565b600081519050919050565b600082825260208201905092915050565b6000615b1882615af1565b615b228185615afc565b9350615b328185602086016147d3565b615b3b81614485565b840191505092915050565b600060a082019050615b5b6000830188615ad3565b615b686020830187614bf2565b615b756040830186614bf2565b615b826060830185615ae2565b8181036080830152615b948184615b0d565b90509695505050505050565b6000615bab82615aaf565b9050919050565b615bbb81615ba0565b82525050565b6000606082019050615bd66000830186615bb2565b8181036020830152615be88185615b0d565b90508181036040830152615bfc8184615b0d565b9050949350505050565b600067ffffffffffffffff821115615c2157615c20614496565b5b615c2a82614485565b9050602081019050919050565b6000615c4a615c4584615c06565b6144f6565b905082815260208101848484011115615c6657615c65614480565b5b615c718482856147d3565b509392505050565b600082601f830112615c8e57615c8d61447b565b5b8151615c9e848260208601615c37565b91505092915050565b600060208284031215615cbd57615cbc614405565b5b600082015167ffffffffffffffff811115615cdb57615cda61440a565b5b615ce784828501615c79565b91505092915050565b6000608082019050615d056000830187615ad3565b615d126020830186614bf2565b615d1f6040830185614bf2565b8181036060830152615d318184615b0d565b905095945050505050565b600081519050615d4b816145f3565b92915050565b600060208284031215615d6757615d66614405565b5b6000615d7584828501615d3c565b91505092915050565b6000819050919050565b615d9181615d7e565b82525050565b6000602082019050615dac6000830184615d88565b92915050565b6000615dbd826145e1565b9050919050565b615dcd81615db2565b8114615dd857600080fd5b50565b600081519050615dea81615dc4565b92915050565b600060208284031215615e0657615e05614405565b5b6000615e1484828501615ddb565b91505092915050565b7f4e487b7100000000000000000000000000000000000000000000000000000000600052600160045260246000fdfea2646970667358221220270d14078587296cbcf329cf5c10db589a67f947631fb84c4d15edc42f48ba5164736f6c634300080e0033",
  "linkReferences": {},
  "deployedLinkReferences": {}
}