{
  "_format": "hh-sol-artifact-1",
  "contractName": "CamoSuperParcel",
  "sourceName": "contracts/CamoSuperParcel.sol",
  "abi": [
    {
      "inputs": [
        {
          "internalType": "address",
          "name": "token_addr",
          "type": "address"
        },
        {
          "internalType": "int96",
          "name": "shipperFee_",
          "type": "int96"
        }
      ],
      "stateMutability": "nonpayable",
      "type": "constructor"
    },
    {
      "inputs": [],
      "name": "Unauthorized",
      "type": "error"
    },
    {
      "anonymous": false,
      "inputs": [
        {
          "indexed": false,
          "internalType": "address",
          "name": "",
          "type": "address"
        },
        {
          "indexed": false,
          "internalType": "address",
          "name": "",
          "type": "address"
        },
        {
          "indexed": false,
          "internalType": "uint256",
          "name": "",
          "type": "uint256"
        }
      ],
      "name": "ParcelDelivered",
      "type": "event"
    },
    {
      "anonymous": false,
      "inputs": [
        {
          "indexed": false,
          "internalType": "address",
          "name": "",
          "type": "address"
        },
        {
          "indexed": false,
          "internalType": "address",
          "name": "",
          "type": "address"
        },
        {
          "indexed": false,
          "internalType": "uint256",
          "name": "",
          "type": "uint256"
        }
      ],
      "name": "ParcelLocationUpdated",
      "type": "event"
    },
    {
      "anonymous": false,
      "inputs": [
        {
          "indexed": false,
          "internalType": "address",
          "name": "",
          "type": "address"
        },
        {
          "indexed": false,
          "internalType": "address",
          "name": "",
          "type": "address"
        },
        {
          "indexed": false,
          "internalType": "uint256",
          "name": "",
          "type": "uint256"
        }
      ],
      "name": "ParcelShippedEvent",
      "type": "event"
    },
    {
      "inputs": [
        {
          "internalType": "address",
          "name": "partner",
          "type": "address"
        },
        {
          "internalType": "int96",
          "name": "salary",
          "type": "int96"
        }
      ],
      "name": "addPartner",
      "outputs": [],
      "stateMutability": "nonpayable",
      "type": "function"
    },
    {
      "inputs": [
        {
          "internalType": "uint256",
          "name": "id",
          "type": "uint256"
        }
      ],
      "name": "banShipper",
      "outputs": [],
      "stateMutability": "nonpayable",
      "type": "function"
    },
    {
      "inputs": [],
      "name": "getMyId",
      "outputs": [
        {
          "internalType": "uint256",
          "name": "",
          "type": "uint256"
        }
      ],
      "stateMutability": "view",
      "type": "function"
    },
    {
      "inputs": [
        {
          "internalType": "uint256",
          "name": "id",
          "type": "uint256"
        }
      ],
      "name": "getMyPartnerById",
      "outputs": [
        {
          "components": [
            {
              "internalType": "address",
              "name": "walletAddress",
              "type": "address"
            },
            {
              "internalType": "address",
              "name": "associatedShipper",
              "type": "address"
            },
            {
              "internalType": "int96",
              "name": "salary",
              "type": "int96"
            },
            {
              "internalType": "bool",
              "name": "active",
              "type": "bool"
            }
          ],
          "internalType": "struct CamoSuperParcel.Partner",
          "name": "",
          "type": "tuple"
        }
      ],
      "stateMutability": "view",
      "type": "function"
    },
    {
      "inputs": [],
      "name": "getMyType",
      "outputs": [
        {
          "internalType": "uint16",
          "name": "",
          "type": "uint16"
        }
      ],
      "stateMutability": "view",
      "type": "function"
    },
    {
      "inputs": [
        {
          "internalType": "uint256",
          "name": "id",
          "type": "uint256"
        }
      ],
      "name": "getShipperById",
      "outputs": [
        {
          "components": [
            {
              "internalType": "address",
              "name": "walletAddress",
              "type": "address"
            },
            {
              "internalType": "uint256[]",
              "name": "myPartners",
              "type": "uint256[]"
            },
            {
              "internalType": "uint256[]",
              "name": "shippedParcels",
              "type": "uint256[]"
            },
            {
              "internalType": "uint256",
              "name": "insuranceDeposit",
              "type": "uint256"
            },
            {
              "internalType": "uint8",
              "name": "status",
              "type": "uint8"
            },
            {
              "internalType": "uint256",
              "name": "rating",
              "type": "uint256"
            },
            {
              "internalType": "uint256",
              "name": "totalRated",
              "type": "uint256"
            }
          ],
          "internalType": "struct CamoSuperParcel.Shipper",
          "name": "",
          "type": "tuple"
        }
      ],
      "stateMutability": "view",
      "type": "function"
    },
    {
      "inputs": [
        {
          "internalType": "uint256",
          "name": "pId",
          "type": "uint256"
        },
        {
          "internalType": "uint256",
          "name": "otp",
          "type": "uint256"
        }
      ],
      "name": "markParcelDelivered",
      "outputs": [],
      "stateMutability": "nonpayable",
      "type": "function"
    },
    {
      "inputs": [],
      "name": "owner",
      "outputs": [
        {
          "internalType": "address",
          "name": "",
          "type": "address"
        }
      ],
      "stateMutability": "view",
      "type": "function"
    },
    {
      "inputs": [
        {
          "internalType": "uint256",
          "name": "pId",
          "type": "uint256"
        },
        {
          "internalType": "uint256",
          "name": "stars",
          "type": "uint256"
        }
      ],
      "name": "rateDeliveredParcel",
      "outputs": [],
      "stateMutability": "nonpayable",
      "type": "function"
    },
    {
      "inputs": [],
      "name": "registerAsShipper",
      "outputs": [],
      "stateMutability": "nonpayable",
      "type": "function"
    },
    {
      "inputs": [
        {
          "internalType": "address",
          "name": "partner_addr",
          "type": "address"
        }
      ],
      "name": "removePartner",
      "outputs": [],
      "stateMutability": "nonpayable",
      "type": "function"
    },
    {
      "inputs": [
        {
          "internalType": "string",
          "name": "itemName",
          "type": "string"
        },
        {
          "internalType": "string",
          "name": "itemDesc",
          "type": "string"
        },
        {
          "internalType": "address",
          "name": "userAddress",
          "type": "address"
        },
        {
          "internalType": "uint256",
          "name": "expectedDelivery",
          "type": "uint256"
        },
        {
          "internalType": "uint256",
          "name": "baseCompensation",
          "type": "uint256"
        },
        {
          "internalType": "uint256",
          "name": "otp",
          "type": "uint256"
        }
      ],
      "name": "shipOrder",
      "outputs": [],
      "stateMutability": "nonpayable",
      "type": "function"
    },
    {
      "inputs": [
        {
          "internalType": "uint256",
          "name": "amount",
          "type": "uint256"
        }
      ],
      "name": "shipperDepositFund",
      "outputs": [],
      "stateMutability": "payable",
      "type": "function"
    },
    {
      "inputs": [],
      "name": "unregisterAsShipper",
      "outputs": [],
      "stateMutability": "nonpayable",
      "type": "function"
    },
    {
      "inputs": [
        {
          "internalType": "uint256",
          "name": "pId",
          "type": "uint256"
        },
        {
          "internalType": "string",
          "name": "location",
          "type": "string"
        }
      ],
      "name": "updateLocation",
      "outputs": [],
      "stateMutability": "nonpayable",
      "type": "function"
    },
    {
      "inputs": [],
      "name": "viewMyParcels",
      "outputs": [
        {
          "components": [
            {
              "internalType": "uint256",
              "name": "id",
              "type": "uint256"
            },
            {
              "internalType": "address",
              "name": "receiver",
              "type": "address"
            },
            {
              "internalType": "address",
              "name": "sender",
              "type": "address"
            },
            {
              "internalType": "string",
              "name": "itemName",
              "type": "string"
            },
            {
              "internalType": "string",
              "name": "itemDesc",
              "type": "string"
            },
            {
              "internalType": "uint256",
              "name": "expectedDelivery",
              "type": "uint256"
            },
            {
              "internalType": "uint256",
              "name": "status",
              "type": "uint256"
            },
            {
              "internalType": "string",
              "name": "currentLocation",
              "type": "string"
            },
            {
              "internalType": "uint256",
              "name": "baseCompensation",
              "type": "uint256"
            },
            {
              "internalType": "uint256",
              "name": "otp",
              "type": "uint256"
            },
            {
              "internalType": "uint256",
              "name": "rating",
              "type": "uint256"
            }
          ],
          "internalType": "struct CamoSuperParcel.Parcel[]",
          "name": "",
          "type": "tuple[]"
        }
      ],
      "stateMutability": "view",
      "type": "function"
    },
    {
      "inputs": [],
      "name": "viewMyPartners",
      "outputs": [
        {
          "components": [
            {
              "internalType": "address",
              "name": "walletAddress",
              "type": "address"
            },
            {
              "internalType": "address",
              "name": "associatedShipper",
              "type": "address"
            },
            {
              "internalType": "int96",
              "name": "salary",
              "type": "int96"
            },
            {
              "internalType": "bool",
              "name": "active",
              "type": "bool"
            }
          ],
          "internalType": "struct CamoSuperParcel.Partner[]",
          "name": "",
          "type": "tuple[]"
        }
      ],
      "stateMutability": "view",
      "type": "function"
    },
    {
      "inputs": [
        {
          "internalType": "uint256",
          "name": "pId",
          "type": "uint256"
        }
      ],
      "name": "viewParcel",
      "outputs": [
        {
          "components": [
            {
              "internalType": "uint256",
              "name": "id",
              "type": "uint256"
            },
            {
              "internalType": "address",
              "name": "receiver",
              "type": "address"
            },
            {
              "internalType": "address",
              "name": "sender",
              "type": "address"
            },
            {
              "internalType": "string",
              "name": "itemName",
              "type": "string"
            },
            {
              "internalType": "string",
              "name": "itemDesc",
              "type": "string"
            },
            {
              "internalType": "uint256",
              "name": "expectedDelivery",
              "type": "uint256"
            },
            {
              "internalType": "uint256",
              "name": "status",
              "type": "uint256"
            },
            {
              "internalType": "string",
              "name": "currentLocation",
              "type": "string"
            },
            {
              "internalType": "uint256",
              "name": "baseCompensation",
              "type": "uint256"
            },
            {
              "internalType": "uint256",
              "name": "otp",
              "type": "uint256"
            },
            {
              "internalType": "uint256",
              "name": "rating",
              "type": "uint256"
            }
          ],
          "internalType": "struct CamoSuperParcel.Parcel",
          "name": "",
          "type": "tuple"
        }
      ],
      "stateMutability": "view",
      "type": "function"
    },
    {
      "inputs": [
        {
          "internalType": "uint256",
          "name": "amount",
          "type": "uint256"
        }
      ],
      "name": "withdrawFundsCollected",
      "outputs": [],
      "stateMutability": "nonpayable",
      "type": "function"
    }
  ],
  "bytecode": "0x60806040526001600255600160035560016004553480156200002057600080fd5b5060405162005fa738038062005fa78339818101604052810190620000469190620001ab565b81600160006101000a81548173ffffffffffffffffffffffffffffffffffffffff021916908373ffffffffffffffffffffffffffffffffffffffff160217905550336000806101000a81548173ffffffffffffffffffffffffffffffffffffffff021916908373ffffffffffffffffffffffffffffffffffffffff16021790555080600b60006101000a8154816bffffffffffffffffffffffff0219169083600b0b6bffffffffffffffffffffffff1602179055505050620001f2565b600080fd5b600073ffffffffffffffffffffffffffffffffffffffff82169050919050565b6000620001358262000108565b9050919050565b620001478162000128565b81146200015357600080fd5b50565b60008151905062000167816200013c565b92915050565b600081600b0b9050919050565b62000185816200016d565b81146200019157600080fd5b50565b600081519050620001a5816200017a565b92915050565b60008060408385031215620001c557620001c462000103565b5b6000620001d58582860162000156565b9250506020620001e88582860162000194565b9150509250929050565b615da580620002026000396000f3fe6080604052600436106101145760003560e01c80637c6bff43116100a0578063ad8972bd11610064578063ad8972bd14610368578063c0031b9b14610391578063c79148ba146103bc578063cf2ddbd7146103e7578063ea3c281a1461041057610114565b80637c6bff43146102815780637dbac6f1146102ac5780638da5cb5b146102e9578063912dc35114610314578063a2168f821461032b57610114565b80634ec0c9e9116100e75780634ec0c9e9146101ad57806351a81afc146101d65780635a0d1ab4146101f2578063650d01621461021b5780636e95470c1461025857610114565b806327ed00ee14610119578063385a41f1146101445780633883e3691461015b578063406c05ae14610184575b600080fd5b34801561012557600080fd5b5061012e610439565b60405161013b9190614303565b60405180910390f35b34801561015057600080fd5b5061015961055e565b005b34801561016757600080fd5b50610182600480360381019061017d919061435e565b610892565b005b34801561019057600080fd5b506101ab60048036038101906101a69190614542565b610cff565b005b3480156101b957600080fd5b506101d460048036038101906101cf9190614607565b61118e565b005b6101f060048036038101906101eb9190614663565b611366565b005b3480156101fe57600080fd5b506102196004803603810190610214919061435e565b6115ab565b005b34801561022757600080fd5b50610242600480360381019061023d9190614663565b611aa0565b60405161024f919061472b565b60405180910390f35b34801561026457600080fd5b5061027f600480360381019061027a9190614663565b611d04565b005b34801561028d57600080fd5b50610296611dbc565b6040516102a39190614763565b60405180910390f35b3480156102b857600080fd5b506102d360048036038101906102ce9190614663565b611ec2565b6040516102e09190614912565b60405180910390f35b3480156102f557600080fd5b506102fe6122cb565b60405161030b9190614943565b60405180910390f35b34801561032057600080fd5b506103296122ef565b005b34801561033757600080fd5b50610352600480360381019061034d9190614663565b612450565b60405161035f9190614acc565b60405180910390f35b34801561037457600080fd5b5061038f600480360381019061038a9190614663565b6125be565b005b34801561039d57600080fd5b506103a66126e7565b6040516103b39190614cad565b60405180910390f35b3480156103c857600080fd5b506103d1612fe5565b6040516103de9190614dd3565b60405180910390f35b3480156103f357600080fd5b5061040e60048036038101906104099190614e21565b613348565b005b34801561041c57600080fd5b5061043760048036038101906104329190614e61565b613774565b005b600080600560003373ffffffffffffffffffffffffffffffffffffffff1673ffffffffffffffffffffffffffffffffffffffff16815260200190815260200160002054146104c857600560003373ffffffffffffffffffffffffffffffffffffffff1673ffffffffffffffffffffffffffffffffffffffff16815260200190815260200160002054905061055b565b6000600660003373ffffffffffffffffffffffffffffffffffffffff1673ffffffffffffffffffffffffffffffffffffffff168152602001908152602001600020541461055657600660003373ffffffffffffffffffffffffffffffffffffffff1673ffffffffffffffffffffffffffffffffffffffff16815260200190815260200160002054905061055b565b600090505b90565b6000600660003373ffffffffffffffffffffffffffffffffffffffff1673ffffffffffffffffffffffffffffffffffffffff16815260200190815260200160002054146105e0576040517f08c379a00000000000000000000000000000000000000000000000000000000081526004016105d790614eeb565b60405180910390fd5b600060076000600560003373ffffffffffffffffffffffffffffffffffffffff1673ffffffffffffffffffffffffffffffffffffffff16815260200190815260200160002054815260200190815260200160002060040160009054906101000a900460ff1660ff169050600160ff1681141580156106625750600360ff168114155b6106a1576040517f08c379a000000000000000000000000000000000000000000000000000000000815260040161069890614f57565b60405180910390fd5b6106ff3330600b60009054906101000a9004600b0b600160009054906101000a900473ffffffffffffffffffffffffffffffffffffffff1673ffffffffffffffffffffffffffffffffffffffff16613a5d909392919063ffffffff16565b50606060006040518060e001604052803373ffffffffffffffffffffffffffffffffffffffff16815260200183815260200183815260200160008152602001600160ff1681526020016000815260200160008152509050600354600560003373ffffffffffffffffffffffffffffffffffffffff1673ffffffffffffffffffffffffffffffffffffffff168152602001908152602001600020819055508060076000600354815260200190815260200160002060008201518160000160006101000a81548173ffffffffffffffffffffffffffffffffffffffff021916908373ffffffffffffffffffffffffffffffffffffffff16021790555060208201518160010190805190602001906108159291906140c5565b5060408201518160020190805190602001906108329291906140c5565b506060820151816003015560808201518160040160006101000a81548160ff021916908360ff16021790555060a0820151816005015560c082015181600601559050506003600081548092919061088890614fa6565b9190505550505050565b60086000600660003373ffffffffffffffffffffffffffffffffffffffff1673ffffffffffffffffffffffffffffffffffffffff16815260200190815260200160002054815260200190815260200160002060020160009054906101000a900460ff1661092b576040517f82b4290000000000000000000000000000000000000000000000000000000000815260040160405180910390fd5b600a6000838152602001908152602001600020600901548114610983576040517f08c379a000000000000000000000000000000000000000000000000000000000815260040161097a9061503a565b60405180910390fd5b600160ff16600a60008481526020019081526020016000206006015414806109c45750600260ff16600a600084815260200190815260200160002060060154145b610a03576040517f08c379a00000000000000000000000000000000000000000000000000000000081526004016109fa906150a6565b60405180910390fd5b60405180602001604052806000815250600a60008481526020019081526020016000206007019080519060200190610a3c929190614112565b50600360ff16600a6000848152602001908152602001600020600601819055506000610a94600a600085815260200190815260200160002060050154600a600086815260200190815260200160002060080154613ac3565b9050806007600060056000600a600089815260200190815260200160002060020160009054906101000a900473ffffffffffffffffffffffffffffffffffffffff1673ffffffffffffffffffffffffffffffffffffffff1673ffffffffffffffffffffffffffffffffffffffff168152602001908152602001600020548152602001908152602001600020600301541015610b2e57600080fd5b60008114610c89576000600a600085815260200190815260200160002060010160009054906101000a900473ffffffffffffffffffffffffffffffffffffffff1673ffffffffffffffffffffffffffffffffffffffff166108fc839081150290604051600060405180830381858888f19350505050905080610be5576040517f08c379a0000000000000000000000000000000000000000000000000000000008152600401610bdc90615112565b60405180910390fd5b816007600060056000600a60008a815260200190815260200160002060020160009054906101000a900473ffffffffffffffffffffffffffffffffffffffff1673ffffffffffffffffffffffffffffffffffffffff1673ffffffffffffffffffffffffffffffffffffffff1681526020019081526020016000205481526020019081526020016000206003016000828254610c809190615132565b92505081905550505b7f3be6b44b0d8170026cc992b6b6eda259b98e02d16bdfe4b9dd3db223b5420cfd33600a600086815260200190815260200160002060010160009054906101000a900473ffffffffffffffffffffffffffffffffffffffff1685604051610cf293929190615166565b60405180910390a1505050565b600160ff1660076000600560003373ffffffffffffffffffffffffffffffffffffffff1673ffffffffffffffffffffffffffffffffffffffff16815260200190815260200160002054815260200190815260200160002060040160009054906101000a900460ff1660ff1614610da1576040517f82b4290000000000000000000000000000000000000000000000000000000000815260040160405180910390fd5b428311610de3576040517f08c379a0000000000000000000000000000000000000000000000000000000008152600401610dda906151e9565b60405180910390fd5b8160076000600560003373ffffffffffffffffffffffffffffffffffffffff1673ffffffffffffffffffffffffffffffffffffffff168152602001908152602001600020548152602001908152602001600020600301541015610e7b576040517f08c379a0000000000000000000000000000000000000000000000000000000008152600401610e7290615255565b60405180910390fd5b600060405180610160016040528060025481526020018673ffffffffffffffffffffffffffffffffffffffff1681526020013373ffffffffffffffffffffffffffffffffffffffff168152602001888152602001878152602001858152602001600160ff16815260200160405180602001604052806000815250815260200184815260200183815260200160008152509050600960008673ffffffffffffffffffffffffffffffffffffffff1673ffffffffffffffffffffffffffffffffffffffff168152602001908152602001600020600254908060018154018082558091505060019003906000526020600020016000909190919091505580600a600060025481526020019081526020016000206000820151816000015560208201518160010160006101000a81548173ffffffffffffffffffffffffffffffffffffffff021916908373ffffffffffffffffffffffffffffffffffffffff16021790555060408201518160020160006101000a81548173ffffffffffffffffffffffffffffffffffffffff021916908373ffffffffffffffffffffffffffffffffffffffff160217905550606082015181600301908051906020019061103f929190614112565b50608082015181600401908051906020019061105c929190614112565b5060a0820151816005015560c0820151816006015560e082015181600701908051906020019061108d929190614112565b506101008201518160080155610120820151816009015561014082015181600a015590505060076000600560003373ffffffffffffffffffffffffffffffffffffffff1673ffffffffffffffffffffffffffffffffffffffff16815260200190815260200160002054815260200190815260200160002060020160025490806001815401808255809150506001900390600052602060002001600090919091909150557f32c1836ded10d94133bd527768a93f4a18336e79a66c70baa8093401c9e3440f338660025460405161116593929190615166565b60405180910390a16002600081548092919061118090614fa6565b919050555050505050505050565b60086000600660003373ffffffffffffffffffffffffffffffffffffffff1673ffffffffffffffffffffffffffffffffffffffff16815260200190815260200160002054815260200190815260200160002060020160009054906101000a900460ff16611227576040517f82b4290000000000000000000000000000000000000000000000000000000000815260040160405180910390fd5b600160ff16600a60008481526020019081526020016000206006015414806112685750600260ff16600a600084815260200190815260200160002060060154145b6112a7576040517f08c379a000000000000000000000000000000000000000000000000000000000815260040161129e906152c1565b60405180910390fd5b80600a600084815260200190815260200160002060070190805190602001906112d1929190614112565b50600260ff16600a6000848152602001908152602001600020600601819055507fa3c313d9290f28b0a583dcc5ceabc0a50c3124d1ae9ae1630668c1f404d5a6b633600a600085815260200190815260200160002060010160009054906101000a900473ffffffffffffffffffffffffffffffffffffffff168460405161135a93929190615166565b60405180910390a15050565b600160ff1660076000600560003373ffffffffffffffffffffffffffffffffffffffff1673ffffffffffffffffffffffffffffffffffffffff16815260200190815260200160002054815260200190815260200160002060040160009054906101000a900460ff1660ff1614611408576040517f82b4290000000000000000000000000000000000000000000000000000000000815260040160405180910390fd5b6000811161144b576040517f08c379a00000000000000000000000000000000000000000000000000000000081526004016114429061532d565b60405180910390fd5b600160009054906101000a900473ffffffffffffffffffffffffffffffffffffffff1673ffffffffffffffffffffffffffffffffffffffff166323b872dd3330846040518463ffffffff1660e01b81526004016114aa93929190615166565b6020604051808303816000875af11580156114c9573d6000803e3d6000fd5b505050506040513d601f19601f820116820180604052508101906114ed9190615379565b508060076000600560003373ffffffffffffffffffffffffffffffffffffffff1673ffffffffffffffffffffffffffffffffffffffff1681526020019081526020016000205481526020019081526020016000206003015461154f91906153a6565b60076000600560003373ffffffffffffffffffffffffffffffffffffffff1673ffffffffffffffffffffffffffffffffffffffff1681526020019081526020016000205481526020019081526020016000206003018190555050565b6000600a600084815260200190815260200160002060405180610160016040529081600082015481526020016001820160009054906101000a900473ffffffffffffffffffffffffffffffffffffffff1673ffffffffffffffffffffffffffffffffffffffff1673ffffffffffffffffffffffffffffffffffffffff1681526020016002820160009054906101000a900473ffffffffffffffffffffffffffffffffffffffff1673ffffffffffffffffffffffffffffffffffffffff1673ffffffffffffffffffffffffffffffffffffffff1681526020016003820180546116929061542b565b80601f01602080910402602001604051908101604052809291908181526020018280546116be9061542b565b801561170b5780601f106116e05761010080835404028352916020019161170b565b820191906000526020600020905b8154815290600101906020018083116116ee57829003601f168201915b505050505081526020016004820180546117249061542b565b80601f01602080910402602001604051908101604052809291908181526020018280546117509061542b565b801561179d5780601f106117725761010080835404028352916020019161179d565b820191906000526020600020905b81548152906001019060200180831161178057829003601f168201915b5050505050815260200160058201548152602001600682015481526020016007820180546117ca9061542b565b80601f01602080910402602001604051908101604052809291908181526020018280546117f69061542b565b80156118435780601f1061181857610100808354040283529160200191611843565b820191906000526020600020905b81548152906001019060200180831161182657829003601f168201915b505050505081526020016008820154815260200160098201548152602001600a8201548152505090503373ffffffffffffffffffffffffffffffffffffffff16816020015173ffffffffffffffffffffffffffffffffffffffff16146118de576040517f08c379a00000000000000000000000000000000000000000000000000000000081526004016118d5906154a8565b60405180910390fd5b600081610140015114611926576040517f08c379a000000000000000000000000000000000000000000000000000000000815260040161191d90615514565b60405180910390fd5b600360ff168160c0015114611970576040517f08c379a000000000000000000000000000000000000000000000000000000000815260040161196790615580565b60405180910390fd5b600582111580156119815750600082115b6119c0576040517f08c379a00000000000000000000000000000000000000000000000000000000081526004016119b7906155ec565b60405180910390fd5b81600a6000858152602001908152602001600020600a018190555060006007600060056000856040015173ffffffffffffffffffffffffffffffffffffffff1673ffffffffffffffffffffffffffffffffffffffff1681526020019081526020016000205481526020019081526020016000209050600060018260060154611a4891906153a6565b670de0b6b3a764000085611a5c919061560c565b611a669190615695565b8260050154611a7591906153a6565b905060018260060154611a8891906153a6565b82600601819055508082600501819055505050505050565b611aa8614198565b600160ff1660076000600560003373ffffffffffffffffffffffffffffffffffffffff1673ffffffffffffffffffffffffffffffffffffffff16815260200190815260200160002054815260200190815260200160002060040160009054906101000a900460ff1660ff1614611b4a576040517f82b4290000000000000000000000000000000000000000000000000000000000815260040160405180910390fd5b60008214158015611bbc57503373ffffffffffffffffffffffffffffffffffffffff166008600084815260200190815260200160002060010160009054906101000a900473ffffffffffffffffffffffffffffffffffffffff1673ffffffffffffffffffffffffffffffffffffffff16145b611bfb576040517f08c379a0000000000000000000000000000000000000000000000000000000008152600401611bf290615712565b60405180910390fd5b600860008381526020019081526020016000206040518060800160405290816000820160009054906101000a900473ffffffffffffffffffffffffffffffffffffffff1673ffffffffffffffffffffffffffffffffffffffff1673ffffffffffffffffffffffffffffffffffffffff1681526020016001820160009054906101000a900473ffffffffffffffffffffffffffffffffffffffff1673ffffffffffffffffffffffffffffffffffffffff1673ffffffffffffffffffffffffffffffffffffffff1681526020016001820160149054906101000a9004600b0b600b0b600b0b81526020016002820160009054906101000a900460ff1615151515815250509050919050565b60008054906101000a900473ffffffffffffffffffffffffffffffffffffffff1673ffffffffffffffffffffffffffffffffffffffff163373ffffffffffffffffffffffffffffffffffffffff1614611d89576040517f82b4290000000000000000000000000000000000000000000000000000000000815260040160405180910390fd5b60036007600083815260200190815260200160002060040160006101000a81548160ff021916908360ff16021790555050565b600080600560003373ffffffffffffffffffffffffffffffffffffffff1673ffffffffffffffffffffffffffffffffffffffff1681526020019081526020016000205414611e0d5760019050611ebf565b6000600660003373ffffffffffffffffffffffffffffffffffffffff1673ffffffffffffffffffffffffffffffffffffffff1681526020019081526020016000205414611e5d5760029050611ebf565b60008054906101000a900473ffffffffffffffffffffffffffffffffffffffff1673ffffffffffffffffffffffffffffffffffffffff163373ffffffffffffffffffffffffffffffffffffffff1603611eba576103e79050611ebf565b600390505b90565b611eca6141f1565b600160ff1660076000600560003373ffffffffffffffffffffffffffffffffffffffff1673ffffffffffffffffffffffffffffffffffffffff16815260200190815260200160002054815260200190815260200160002060040160009054906101000a900460ff1660ff1614611f6c576040517f82b4290000000000000000000000000000000000000000000000000000000000815260040160405180910390fd5b3373ffffffffffffffffffffffffffffffffffffffff16600a600084815260200190815260200160002060020160009054906101000a900473ffffffffffffffffffffffffffffffffffffffff1673ffffffffffffffffffffffffffffffffffffffff1614612007576040517f82b4290000000000000000000000000000000000000000000000000000000000815260040160405180910390fd5b600a600083815260200190815260200160002060405180610160016040529081600082015481526020016001820160009054906101000a900473ffffffffffffffffffffffffffffffffffffffff1673ffffffffffffffffffffffffffffffffffffffff1673ffffffffffffffffffffffffffffffffffffffff1681526020016002820160009054906101000a900473ffffffffffffffffffffffffffffffffffffffff1673ffffffffffffffffffffffffffffffffffffffff1673ffffffffffffffffffffffffffffffffffffffff1681526020016003820180546120ec9061542b565b80601f01602080910402602001604051908101604052809291908181526020018280546121189061542b565b80156121655780601f1061213a57610100808354040283529160200191612165565b820191906000526020600020905b81548152906001019060200180831161214857829003601f168201915b5050505050815260200160048201805461217e9061542b565b80601f01602080910402602001604051908101604052809291908181526020018280546121aa9061542b565b80156121f75780601f106121cc576101008083540402835291602001916121f7565b820191906000526020600020905b8154815290600101906020018083116121da57829003601f168201915b5050505050815260200160058201548152602001600682015481526020016007820180546122249061542b565b80601f01602080910402602001604051908101604052809291908181526020018280546122509061542b565b801561229d5780601f106122725761010080835404028352916020019161229d565b820191906000526020600020905b81548152906001019060200180831161228057829003601f168201915b505050505081526020016008820154815260200160098201548152602001600a820154815250509050919050565b60008054906101000a900473ffffffffffffffffffffffffffffffffffffffff1681565b600160ff1660076000600560003373ffffffffffffffffffffffffffffffffffffffff1673ffffffffffffffffffffffffffffffffffffffff16815260200190815260200160002054815260200190815260200160002060040160009054906101000a900460ff1660ff1614612391576040517f82b4290000000000000000000000000000000000000000000000000000000000815260040160405180910390fd5b6123de3330600160009054906101000a900473ffffffffffffffffffffffffffffffffffffffff1673ffffffffffffffffffffffffffffffffffffffff16613b099092919063ffffffff16565b50600260076000600560003373ffffffffffffffffffffffffffffffffffffffff1673ffffffffffffffffffffffffffffffffffffffff16815260200190815260200160002054815260200190815260200160002060040160006101000a81548160ff021916908360ff160217905550565b612458614277565b600760008381526020019081526020016000206040518060e00160405290816000820160009054906101000a900473ffffffffffffffffffffffffffffffffffffffff1673ffffffffffffffffffffffffffffffffffffffff1673ffffffffffffffffffffffffffffffffffffffff1681526020016001820180548060200260200160405190810160405280929190818152602001828054801561251b57602002820191906000526020600020905b815481526020019060010190808311612507575b505050505081526020016002820180548060200260200160405190810160405280929190818152602001828054801561257357602002820191906000526020600020905b81548152602001906001019080831161255f575b50505050508152602001600382015481526020016004820160009054906101000a900460ff1660ff1660ff168152602001600582015481526020016006820154815250509050919050565b60008054906101000a900473ffffffffffffffffffffffffffffffffffffffff1673ffffffffffffffffffffffffffffffffffffffff163373ffffffffffffffffffffffffffffffffffffffff1614612643576040517f82b4290000000000000000000000000000000000000000000000000000000000815260040160405180910390fd5b600160009054906101000a900473ffffffffffffffffffffffffffffffffffffffff1673ffffffffffffffffffffffffffffffffffffffff1663a9059cbb33836040518363ffffffff1660e01b81526004016126a0929190615732565b6020604051808303816000875af11580156126bf573d6000803e3d6000fd5b505050506040513d601f19601f820116820180604052508101906126e39190615379565b5050565b60606000600560003373ffffffffffffffffffffffffffffffffffffffff1673ffffffffffffffffffffffffffffffffffffffff1681526020019081526020016000205414612bac57600060076000600560003373ffffffffffffffffffffffffffffffffffffffff1673ffffffffffffffffffffffffffffffffffffffff1681526020019081526020016000205481526020019081526020016000206002018054905067ffffffffffffffff8111156127a4576127a36143b9565b5b6040519080825280602002602001820160405280156127dd57816020015b6127ca6141f1565b8152602001906001900390816127c25790505b50905060005b60076000600560003373ffffffffffffffffffffffffffffffffffffffff1673ffffffffffffffffffffffffffffffffffffffff16815260200190815260200160002054815260200190815260200160002060020180549050811015612ba257600a600060076000600560003373ffffffffffffffffffffffffffffffffffffffff1673ffffffffffffffffffffffffffffffffffffffff16815260200190815260200160002054815260200190815260200160002060020183815481106128ae576128ad61575b565b5b9060005260206000200154815260200190815260200160002060405180610160016040529081600082015481526020016001820160009054906101000a900473ffffffffffffffffffffffffffffffffffffffff1673ffffffffffffffffffffffffffffffffffffffff1673ffffffffffffffffffffffffffffffffffffffff1681526020016002820160009054906101000a900473ffffffffffffffffffffffffffffffffffffffff1673ffffffffffffffffffffffffffffffffffffffff1673ffffffffffffffffffffffffffffffffffffffff1681526020016003820180546129999061542b565b80601f01602080910402602001604051908101604052809291908181526020018280546129c59061542b565b8015612a125780601f106129e757610100808354040283529160200191612a12565b820191906000526020600020905b8154815290600101906020018083116129f557829003601f168201915b50505050508152602001600482018054612a2b9061542b565b80601f0160208091040260200160405190810160405280929190818152602001828054612a579061542b565b8015612aa45780601f10612a7957610100808354040283529160200191612aa4565b820191906000526020600020905b815481529060010190602001808311612a8757829003601f168201915b505050505081526020016005820154815260200160068201548152602001600782018054612ad19061542b565b80601f0160208091040260200160405190810160405280929190818152602001828054612afd9061542b565b8015612b4a5780601f10612b1f57610100808354040283529160200191612b4a565b820191906000526020600020905b815481529060010190602001808311612b2d57829003601f168201915b505050505081526020016008820154815260200160098201548152602001600a82015481525050828281518110612b8457612b8361575b565b5b60200260200101819052508080612b9a90614fa6565b9150506127e3565b5080915050612fe2565b6000600960003373ffffffffffffffffffffffffffffffffffffffff1673ffffffffffffffffffffffffffffffffffffffff1681526020019081526020016000208054905067ffffffffffffffff811115612c0a57612c096143b9565b5b604051908082528060200260200182016040528015612c4357816020015b612c306141f1565b815260200190600190039081612c285790505b50905060005b600960003373ffffffffffffffffffffffffffffffffffffffff1673ffffffffffffffffffffffffffffffffffffffff16815260200190815260200160002080549050811015612fdc57600a6000600960003373ffffffffffffffffffffffffffffffffffffffff1673ffffffffffffffffffffffffffffffffffffffff1681526020019081526020016000208381548110612ce857612ce761575b565b5b9060005260206000200154815260200190815260200160002060405180610160016040529081600082015481526020016001820160009054906101000a900473ffffffffffffffffffffffffffffffffffffffff1673ffffffffffffffffffffffffffffffffffffffff1673ffffffffffffffffffffffffffffffffffffffff1681526020016002820160009054906101000a900473ffffffffffffffffffffffffffffffffffffffff1673ffffffffffffffffffffffffffffffffffffffff1673ffffffffffffffffffffffffffffffffffffffff168152602001600382018054612dd39061542b565b80601f0160208091040260200160405190810160405280929190818152602001828054612dff9061542b565b8015612e4c5780601f10612e2157610100808354040283529160200191612e4c565b820191906000526020600020905b815481529060010190602001808311612e2f57829003601f168201915b50505050508152602001600482018054612e659061542b565b80601f0160208091040260200160405190810160405280929190818152602001828054612e919061542b565b8015612ede5780601f10612eb357610100808354040283529160200191612ede565b820191906000526020600020905b815481529060010190602001808311612ec157829003601f168201915b505050505081526020016005820154815260200160068201548152602001600782018054612f0b9061542b565b80601f0160208091040260200160405190810160405280929190818152602001828054612f379061542b565b8015612f845780601f10612f5957610100808354040283529160200191612f84565b820191906000526020600020905b815481529060010190602001808311612f6757829003601f168201915b505050505081526020016008820154815260200160098201548152602001600a82015481525050828281518110612fbe57612fbd61575b565b5b60200260200101819052508080612fd490614fa6565b915050612c49565b50809150505b90565b6060600160ff1660076000600560003373ffffffffffffffffffffffffffffffffffffffff1673ffffffffffffffffffffffffffffffffffffffff16815260200190815260200160002054815260200190815260200160002060040160009054906101000a900460ff1660ff1614613089576040517f82b4290000000000000000000000000000000000000000000000000000000000815260040160405180910390fd5b600060076000600560003373ffffffffffffffffffffffffffffffffffffffff1673ffffffffffffffffffffffffffffffffffffffff1681526020019081526020016000205481526020019081526020016000206001018054905067ffffffffffffffff8111156130fd576130fc6143b9565b5b60405190808252806020026020018201604052801561313657816020015b613123614198565b81526020019060019003908161311b5790505b50905060005b60076000600560003373ffffffffffffffffffffffffffffffffffffffff1673ffffffffffffffffffffffffffffffffffffffff16815260200190815260200160002054815260200190815260200160002060010180549050811015613340576008600060076000600560003373ffffffffffffffffffffffffffffffffffffffff1673ffffffffffffffffffffffffffffffffffffffff16815260200190815260200160002054815260200190815260200160002060010183815481106132075761320661575b565b5b906000526020600020015481526020019081526020016000206040518060800160405290816000820160009054906101000a900473ffffffffffffffffffffffffffffffffffffffff1673ffffffffffffffffffffffffffffffffffffffff1673ffffffffffffffffffffffffffffffffffffffff1681526020016001820160009054906101000a900473ffffffffffffffffffffffffffffffffffffffff1673ffffffffffffffffffffffffffffffffffffffff1673ffffffffffffffffffffffffffffffffffffffff1681526020016001820160149054906101000a9004600b0b600b0b600b0b81526020016002820160009054906101000a900460ff1615151515815250508282815181106133225761332161575b565b5b6020026020010181905250808061333890614fa6565b91505061313c565b508091505090565b600160ff1660076000600560003373ffffffffffffffffffffffffffffffffffffffff1673ffffffffffffffffffffffffffffffffffffffff16815260200190815260200160002054815260200190815260200160002060040160009054906101000a900460ff1660ff16146133ea576040517f82b4290000000000000000000000000000000000000000000000000000000000815260040160405180910390fd5b6000600560008473ffffffffffffffffffffffffffffffffffffffff1673ffffffffffffffffffffffffffffffffffffffff168152602001908152602001600020541461346c576040517f08c379a0000000000000000000000000000000000000000000000000000000008152600401613463906157d6565b60405180910390fd5b6000600660008473ffffffffffffffffffffffffffffffffffffffff1673ffffffffffffffffffffffffffffffffffffffff16815260200190815260200160002054146134ee576040517f08c379a00000000000000000000000000000000000000000000000000000000081526004016134e590615842565b60405180910390fd5b61353d338383600160009054906101000a900473ffffffffffffffffffffffffffffffffffffffff1673ffffffffffffffffffffffffffffffffffffffff16613a5d909392919063ffffffff16565b50600060405180608001604052808473ffffffffffffffffffffffffffffffffffffffff1681526020013373ffffffffffffffffffffffffffffffffffffffff16815260200183600b0b8152602001600115158152509050600454600660008573ffffffffffffffffffffffffffffffffffffffff1673ffffffffffffffffffffffffffffffffffffffff168152602001908152602001600020819055508060086000600454815260200190815260200160002060008201518160000160006101000a81548173ffffffffffffffffffffffffffffffffffffffff021916908373ffffffffffffffffffffffffffffffffffffffff16021790555060208201518160010160006101000a81548173ffffffffffffffffffffffffffffffffffffffff021916908373ffffffffffffffffffffffffffffffffffffffff16021790555060408201518160010160146101000a8154816bffffffffffffffffffffffff0219169083600b0b6bffffffffffffffffffffffff16021790555060608201518160020160006101000a81548160ff02191690831515021790555090505060076000600560003373ffffffffffffffffffffffffffffffffffffffff1673ffffffffffffffffffffffffffffffffffffffff1681526020019081526020016000205481526020019081526020016000206001016004549080600181540180825580915050600190039060005260206000200160009091909190915055600160045461376991906153a6565b600481905550505050565b600160ff1660076000600560003373ffffffffffffffffffffffffffffffffffffffff1673ffffffffffffffffffffffffffffffffffffffff16815260200190815260200160002054815260200190815260200160002060040160009054906101000a900460ff1660ff1614613816576040517f82b4290000000000000000000000000000000000000000000000000000000000815260040160405180910390fd5b6000600660008373ffffffffffffffffffffffffffffffffffffffff1673ffffffffffffffffffffffffffffffffffffffff16815260200190815260200160002054905060006004540361389f576040517f08c379a0000000000000000000000000000000000000000000000000000000008152600401613896906158ae565b60405180910390fd5b3373ffffffffffffffffffffffffffffffffffffffff166008600083815260200190815260200160002060010160009054906101000a900473ffffffffffffffffffffffffffffffffffffffff1673ffffffffffffffffffffffffffffffffffffffff1614613943576040517f08c379a000000000000000000000000000000000000000000000000000000000815260040161393a9061591a565b60405180910390fd5b6008600082815260200190815260200160002060020160009054906101000a900460ff166139a6576040517f08c379a000000000000000000000000000000000000000000000000000000000815260040161399d90615986565b60405180910390fd5b613a29336008600084815260200190815260200160002060000160009054906101000a900473ffffffffffffffffffffffffffffffffffffffff16600160009054906101000a900473ffffffffffffffffffffffffffffffffffffffff1673ffffffffffffffffffffffffffffffffffffffff16613b099092919063ffffffff16565b5060006008600083815260200190815260200160002060020160006101000a81548160ff0219169083151502179055505050565b6000613ab985858585600067ffffffffffffffff811115613a8157613a806143b9565b5b6040519080825280601f01601f191660200182016040528015613ab35781602001600182028036833780820191505090505b50613b6d565b9050949350505050565b6000428310613ad55760009050613b03565b6000620151808442613ae79190615132565b613af19190615695565b90508281613aff919061560c565b9150505b92915050565b6000613b64848484600067ffffffffffffffff811115613b2c57613b2b6143b9565b5b6040519080825280601f01601f191660200182016040528015613b5e5781602001600182028036833780820191505090505b50613cd7565b90509392505050565b6000806000613b7b88613e3e565b915091508173ffffffffffffffffffffffffffffffffffffffff166339255d5b828373ffffffffffffffffffffffffffffffffffffffff166394229ecb8c8c8c8c600067ffffffffffffffff811115613bd757613bd66143b9565b5b6040519080825280601f01601f191660200182016040528015613c095781602001600182028036833780820191505090505b50604051602401613c1e959493929190615a69565b604051602081830303815290604052915060e01b6020820180517bffffffffffffffffffffffffffffffffffffffffffffffffffffffff8381831617835250505050876040518463ffffffff1660e01b8152600401613c7f93929190615ae4565b6000604051808303816000875af1158015613c9e573d6000803e3d6000fd5b505050506040513d6000823e3d601f19601f82011682018060405250810190613cc79190615bca565b5060019250505095945050505050565b6000806000613ce587613e3e565b915091508173ffffffffffffffffffffffffffffffffffffffff166339255d5b828373ffffffffffffffffffffffffffffffffffffffff1663b4b333c68b8b8b600067ffffffffffffffff811115613d4057613d3f6143b9565b5b6040519080825280601f01601f191660200182016040528015613d725781602001600182028036833780820191505090505b50604051602401613d869493929190615c13565b604051602081830303815290604052915060e01b6020820180517bffffffffffffffffffffffffffffffffffffffffffffffffffffffff8381831617835250505050876040518463ffffffff1660e01b8152600401613de793929190615ae4565b6000604051808303816000875af1158015613e06573d6000803e3d6000fd5b505050506040513d6000823e3d601f19601f82011682018060405250810190613e2f9190615bca565b50600192505050949350505050565b6000807f65599bf746e17a00ea62e3610586992d88101b78eec3cf380706621fb97ea8375491507fb969d79d88acd02d04ed7ee7d43b949e7daf093d363abcfbbc43dfdfd1ce969a549050600073ffffffffffffffffffffffffffffffffffffffff168173ffffffffffffffffffffffffffffffffffffffff160361404657600073ffffffffffffffffffffffffffffffffffffffff168273ffffffffffffffffffffffffffffffffffffffff1603613f63578273ffffffffffffffffffffffffffffffffffffffff166320bc44256040518163ffffffff1660e01b8152600401602060405180830381865afa158015613f3c573d6000803e3d6000fd5b505050506040513d601f19601f82011682018060405250810190613f609190615c74565b91505b8173ffffffffffffffffffffffffffffffffffffffff1663b6d200de7fa9214cc96615e0085d3bb077758db69497dc2dce3b2b1e97bc93c3d18d83efd36040518263ffffffff1660e01b8152600401613fbc9190615cba565b602060405180830381865afa158015613fd9573d6000803e3d6000fd5b505050506040513d601f19601f82011682018060405250810190613ffd9190615d13565b9050817f65599bf746e17a00ea62e3610586992d88101b78eec3cf380706621fb97ea83755807fb969d79d88acd02d04ed7ee7d43b949e7daf093d363abcfbbc43dfdfd1ce969a555b600073ffffffffffffffffffffffffffffffffffffffff168273ffffffffffffffffffffffffffffffffffffffff160361408357614082615d40565b5b600073ffffffffffffffffffffffffffffffffffffffff168173ffffffffffffffffffffffffffffffffffffffff16036140c0576140bf615d40565b5b915091565b828054828255906000526020600020908101928215614101579160200282015b828111156141005782518255916020019190600101906140e5565b5b50905061410e91906142cd565b5090565b82805461411e9061542b565b90600052602060002090601f0160209004810192826141405760008555614187565b82601f1061415957805160ff1916838001178555614187565b82800160010185558215614187579182015b8281111561418657825182559160200191906001019061416b565b5b50905061419491906142cd565b5090565b6040518060800160405280600073ffffffffffffffffffffffffffffffffffffffff168152602001600073ffffffffffffffffffffffffffffffffffffffff1681526020016000600b0b81526020016000151581525090565b60405180610160016040528060008152602001600073ffffffffffffffffffffffffffffffffffffffff168152602001600073ffffffffffffffffffffffffffffffffffffffff16815260200160608152602001606081526020016000815260200160008152602001606081526020016000815260200160008152602001600081525090565b6040518060e00160405280600073ffffffffffffffffffffffffffffffffffffffff168152602001606081526020016060815260200160008152602001600060ff16815260200160008152602001600081525090565b5b808211156142e65760008160009055506001016142ce565b5090565b6000819050919050565b6142fd816142ea565b82525050565b600060208201905061431860008301846142f4565b92915050565b6000604051905090565b600080fd5b600080fd5b61433b816142ea565b811461434657600080fd5b50565b60008135905061435881614332565b92915050565b6000806040838503121561437557614374614328565b5b600061438385828601614349565b925050602061439485828601614349565b9150509250929050565b600080fd5b600080fd5b6000601f19601f8301169050919050565b7f4e487b7100000000000000000000000000000000000000000000000000000000600052604160045260246000fd5b6143f1826143a8565b810181811067ffffffffffffffff821117156144105761440f6143b9565b5b80604052505050565b600061442361431e565b905061442f82826143e8565b919050565b600067ffffffffffffffff82111561444f5761444e6143b9565b5b614458826143a8565b9050602081019050919050565b82818337600083830152505050565b600061448761448284614434565b614419565b9050828152602081018484840111156144a3576144a26143a3565b5b6144ae848285614465565b509392505050565b600082601f8301126144cb576144ca61439e565b5b81356144db848260208601614474565b91505092915050565b600073ffffffffffffffffffffffffffffffffffffffff82169050919050565b600061450f826144e4565b9050919050565b61451f81614504565b811461452a57600080fd5b50565b60008135905061453c81614516565b92915050565b60008060008060008060c0878903121561455f5761455e614328565b5b600087013567ffffffffffffffff81111561457d5761457c61432d565b5b61458989828a016144b6565b965050602087013567ffffffffffffffff8111156145aa576145a961432d565b5b6145b689828a016144b6565b95505060406145c789828a0161452d565b94505060606145d889828a01614349565b93505060806145e989828a01614349565b92505060a06145fa89828a01614349565b9150509295509295509295565b6000806040838503121561461e5761461d614328565b5b600061462c85828601614349565b925050602083013567ffffffffffffffff81111561464d5761464c61432d565b5b614659858286016144b6565b9150509250929050565b60006020828403121561467957614678614328565b5b600061468784828501614349565b91505092915050565b61469981614504565b82525050565b600081600b0b9050919050565b6146b58161469f565b82525050565b60008115159050919050565b6146d0816146bb565b82525050565b6080820160008201516146ec6000850182614690565b5060208201516146ff6020850182614690565b50604082015161471260408501826146ac565b50606082015161472560608501826146c7565b50505050565b600060808201905061474060008301846146d6565b92915050565b600061ffff82169050919050565b61475d81614746565b82525050565b60006020820190506147786000830184614754565b92915050565b614787816142ea565b82525050565b600081519050919050565b600082825260208201905092915050565b60005b838110156147c75780820151818401526020810190506147ac565b838111156147d6576000848401525b50505050565b60006147e78261478d565b6147f18185614798565b93506148018185602086016147a9565b61480a816143a8565b840191505092915050565b60006101608301600083015161482e600086018261477e565b5060208301516148416020860182614690565b5060408301516148546040860182614690565b506060830151848203606086015261486c82826147dc565b9150506080830151848203608086015261488682826147dc565b91505060a083015161489b60a086018261477e565b5060c08301516148ae60c086018261477e565b5060e083015184820360e08601526148c682826147dc565b9150506101008301516148dd61010086018261477e565b506101208301516148f261012086018261477e565b5061014083015161490761014086018261477e565b508091505092915050565b6000602082019050818103600083015261492c8184614815565b905092915050565b61493d81614504565b82525050565b60006020820190506149586000830184614934565b92915050565b600081519050919050565b600082825260208201905092915050565b6000819050602082019050919050565b6000614996838361477e565b60208301905092915050565b6000602082019050919050565b60006149ba8261495e565b6149c48185614969565b93506149cf8361497a565b8060005b83811015614a005781516149e7888261498a565b97506149f2836149a2565b9250506001810190506149d3565b5085935050505092915050565b600060ff82169050919050565b614a2381614a0d565b82525050565b600060e083016000830151614a416000860182614690565b5060208301518482036020860152614a5982826149af565b91505060408301518482036040860152614a7382826149af565b9150506060830151614a88606086018261477e565b506080830151614a9b6080860182614a1a565b5060a0830151614aae60a086018261477e565b5060c0830151614ac160c086018261477e565b508091505092915050565b60006020820190508181036000830152614ae68184614a29565b905092915050565b600081519050919050565b600082825260208201905092915050565b6000819050602082019050919050565b600061016083016000830151614b33600086018261477e565b506020830151614b466020860182614690565b506040830151614b596040860182614690565b5060608301518482036060860152614b7182826147dc565b91505060808301518482036080860152614b8b82826147dc565b91505060a0830151614ba060a086018261477e565b5060c0830151614bb360c086018261477e565b5060e083015184820360e0860152614bcb82826147dc565b915050610100830151614be261010086018261477e565b50610120830151614bf761012086018261477e565b50610140830151614c0c61014086018261477e565b508091505092915050565b6000614c238383614b1a565b905092915050565b6000602082019050919050565b6000614c4382614aee565b614c4d8185614af9565b935083602082028501614c5f85614b0a565b8060005b85811015614c9b5784840389528151614c7c8582614c17565b9450614c8783614c2b565b925060208a01995050600181019050614c63565b50829750879550505050505092915050565b60006020820190508181036000830152614cc78184614c38565b905092915050565b600081519050919050565b600082825260208201905092915050565b6000819050602082019050919050565b608082016000820151614d116000850182614690565b506020820151614d246020850182614690565b506040820151614d3760408501826146ac565b506060820151614d4a60608501826146c7565b50505050565b6000614d5c8383614cfb565b60808301905092915050565b6000602082019050919050565b6000614d8082614ccf565b614d8a8185614cda565b9350614d9583614ceb565b8060005b83811015614dc6578151614dad8882614d50565b9750614db883614d68565b925050600181019050614d99565b5085935050505092915050565b60006020820190508181036000830152614ded8184614d75565b905092915050565b614dfe8161469f565b8114614e0957600080fd5b50565b600081359050614e1b81614df5565b92915050565b60008060408385031215614e3857614e37614328565b5b6000614e468582860161452d565b9250506020614e5785828601614e0c565b9150509250929050565b600060208284031215614e7757614e76614328565b5b6000614e858482850161452d565b91505092915050565b600082825260208201905092915050565b7f3400000000000000000000000000000000000000000000000000000000000000600082015250565b6000614ed5600183614e8e565b9150614ee082614e9f565b602082019050919050565b60006020820190508181036000830152614f0481614ec8565b9050919050565b7f3500000000000000000000000000000000000000000000000000000000000000600082015250565b6000614f41600183614e8e565b9150614f4c82614f0b565b602082019050919050565b60006020820190508181036000830152614f7081614f34565b9050919050565b7f4e487b7100000000000000000000000000000000000000000000000000000000600052601160045260246000fd5b6000614fb1826142ea565b91507fffffffffffffffffffffffffffffffffffffffffffffffffffffffffffffffff8203614fe357614fe2614f77565b5b600182019050919050565b7f3131000000000000000000000000000000000000000000000000000000000000600082015250565b6000615024600283614e8e565b915061502f82614fee565b602082019050919050565b6000602082019050818103600083015261505381615017565b9050919050565b7f3132000000000000000000000000000000000000000000000000000000000000600082015250565b6000615090600283614e8e565b915061509b8261505a565b602082019050919050565b600060208201905081810360008301526150bf81615083565b9050919050565b7f3134000000000000000000000000000000000000000000000000000000000000600082015250565b60006150fc600283614e8e565b9150615107826150c6565b602082019050919050565b6000602082019050818103600083015261512b816150ef565b9050919050565b600061513d826142ea565b9150615148836142ea565b92508282101561515b5761515a614f77565b5b828203905092915050565b600060608201905061517b6000830186614934565b6151886020830185614934565b61519560408301846142f4565b949350505050565b7f496e76616c696420657870656374656444656c69766572790000000000000000600082015250565b60006151d3601883614e8e565b91506151de8261519d565b602082019050919050565b60006020820190508181036000830152615202816151c6565b9050919050565b7f3230000000000000000000000000000000000000000000000000000000000000600082015250565b600061523f600283614e8e565b915061524a82615209565b602082019050919050565b6000602082019050818103600083015261526e81615232565b9050919050565b7f3130000000000000000000000000000000000000000000000000000000000000600082015250565b60006152ab600283614e8e565b91506152b682615275565b602082019050919050565b600060208201905081810360008301526152da8161529e565b9050919050565b7f3231000000000000000000000000000000000000000000000000000000000000600082015250565b6000615317600283614e8e565b9150615322826152e1565b602082019050919050565b600060208201905081810360008301526153468161530a565b9050919050565b615356816146bb565b811461536157600080fd5b50565b6000815190506153738161534d565b92915050565b60006020828403121561538f5761538e614328565b5b600061539d84828501615364565b91505092915050565b60006153b1826142ea565b91506153bc836142ea565b9250827fffffffffffffffffffffffffffffffffffffffffffffffffffffffffffffffff038211156153f1576153f0614f77565b5b828201905092915050565b7f4e487b7100000000000000000000000000000000000000000000000000000000600052602260045260246000fd5b6000600282049050600182168061544357607f821691505b602082108103615456576154556153fc565b5b50919050565b7f3135000000000000000000000000000000000000000000000000000000000000600082015250565b6000615492600283614e8e565b915061549d8261545c565b602082019050919050565b600060208201905081810360008301526154c181615485565b9050919050565b7f3136000000000000000000000000000000000000000000000000000000000000600082015250565b60006154fe600283614e8e565b9150615509826154c8565b602082019050919050565b6000602082019050818103600083015261552d816154f1565b9050919050565b7f3137000000000000000000000000000000000000000000000000000000000000600082015250565b600061556a600283614e8e565b915061557582615534565b602082019050919050565b600060208201905081810360008301526155998161555d565b9050919050565b7f3138000000000000000000000000000000000000000000000000000000000000600082015250565b60006155d6600283614e8e565b91506155e1826155a0565b602082019050919050565b60006020820190508181036000830152615605816155c9565b9050919050565b6000615617826142ea565b9150615622836142ea565b9250817fffffffffffffffffffffffffffffffffffffffffffffffffffffffffffffffff048311821515161561565b5761565a614f77565b5b828202905092915050565b7f4e487b7100000000000000000000000000000000000000000000000000000000600052601260045260246000fd5b60006156a0826142ea565b91506156ab836142ea565b9250826156bb576156ba615666565b5b828204905092915050565b7f3139000000000000000000000000000000000000000000000000000000000000600082015250565b60006156fc600283614e8e565b9150615707826156c6565b602082019050919050565b6000602082019050818103600083015261572b816156ef565b9050919050565b60006040820190506157476000830185614934565b61575460208301846142f4565b9392505050565b7f4e487b7100000000000000000000000000000000000000000000000000000000600052603260045260246000fd5b7f3600000000000000000000000000000000000000000000000000000000000000600082015250565b60006157c0600183614e8e565b91506157cb8261578a565b602082019050919050565b600060208201905081810360008301526157ef816157b3565b9050919050565b7f3700000000000000000000000000000000000000000000000000000000000000600082015250565b600061582c600183614e8e565b9150615837826157f6565b602082019050919050565b6000602082019050818103600083015261585b8161581f565b9050919050565b7f3236000000000000000000000000000000000000000000000000000000000000600082015250565b6000615898600283614e8e565b91506158a382615862565b602082019050919050565b600060208201905081810360008301526158c78161588b565b9050919050565b7f3800000000000000000000000000000000000000000000000000000000000000600082015250565b6000615904600183614e8e565b915061590f826158ce565b602082019050919050565b60006020820190508181036000830152615933816158f7565b9050919050565b7f3900000000000000000000000000000000000000000000000000000000000000600082015250565b6000615970600183614e8e565b915061597b8261593a565b602082019050919050565b6000602082019050818103600083015261599f81615963565b9050919050565b6000819050919050565b60006159cb6159c66159c1846144e4565b6159a6565b6144e4565b9050919050565b60006159dd826159b0565b9050919050565b60006159ef826159d2565b9050919050565b6159ff816159e4565b82525050565b615a0e8161469f565b82525050565b600081519050919050565b600082825260208201905092915050565b6000615a3b82615a14565b615a458185615a1f565b9350615a558185602086016147a9565b615a5e816143a8565b840191505092915050565b600060a082019050615a7e60008301886159f6565b615a8b6020830187614934565b615a986040830186614934565b615aa56060830185615a05565b8181036080830152615ab78184615a30565b90509695505050505050565b6000615ace826159d2565b9050919050565b615ade81615ac3565b82525050565b6000606082019050615af96000830186615ad5565b8181036020830152615b0b8185615a30565b90508181036040830152615b1f8184615a30565b9050949350505050565b600067ffffffffffffffff821115615b4457615b436143b9565b5b615b4d826143a8565b9050602081019050919050565b6000615b6d615b6884615b29565b614419565b905082815260208101848484011115615b8957615b886143a3565b5b615b948482856147a9565b509392505050565b600082601f830112615bb157615bb061439e565b5b8151615bc1848260208601615b5a565b91505092915050565b600060208284031215615be057615bdf614328565b5b600082015167ffffffffffffffff811115615bfe57615bfd61432d565b5b615c0a84828501615b9c565b91505092915050565b6000608082019050615c2860008301876159f6565b615c356020830186614934565b615c426040830185614934565b8181036060830152615c548184615a30565b905095945050505050565b600081519050615c6e81614516565b92915050565b600060208284031215615c8a57615c89614328565b5b6000615c9884828501615c5f565b91505092915050565b6000819050919050565b615cb481615ca1565b82525050565b6000602082019050615ccf6000830184615cab565b92915050565b6000615ce082614504565b9050919050565b615cf081615cd5565b8114615cfb57600080fd5b50565b600081519050615d0d81615ce7565b92915050565b600060208284031215615d2957615d28614328565b5b6000615d3784828501615cfe565b91505092915050565b7f4e487b7100000000000000000000000000000000000000000000000000000000600052600160045260246000fdfea26469706673582212209ca179ac1224b1e1993e655682487b5fce182f59be7931e3e5e8b05070c901ed64736f6c634300080e0033",
  "linkReferences": {},
  "deployedLinkReferences": {}
}